{
  "_format": "hh-sol-artifact-1",
  "contractName": "PublicMessaging",
  "sourceName": "contracts/PublicMessaging.sol",
  "abi": [
    {
      "inputs": [],
      "stateMutability": "nonpayable",
      "type": "constructor"
    },
    {
      "anonymous": false,
      "inputs": [
        {
          "indexed": true,
          "internalType": "address",
          "name": "recipient",
          "type": "address"
        },
        {
          "indexed": false,
          "internalType": "uint256",
          "name": "amount",
          "type": "uint256"
        }
      ],
      "name": "BalanceWithdrawn",
      "type": "event"
    },
    {
      "anonymous": false,
      "inputs": [
        {
          "indexed": true,
          "internalType": "uint256",
          "name": "id",
          "type": "uint256"
        }
      ],
      "name": "MessageDeleted",
      "type": "event"
    },
    {
      "anonymous": false,
      "inputs": [
        {
          "indexed": true,
          "internalType": "uint256",
          "name": "id",
          "type": "uint256"
        },
        {
          "indexed": false,
          "internalType": "string",
          "name": "content",
          "type": "string"
        },
        {
          "indexed": true,
          "internalType": "address",
          "name": "sender",
          "type": "address"
        }
      ],
      "name": "MessageSent",
      "type": "event"
    },
    {
      "anonymous": false,
      "inputs": [
        {
          "components": [
            {
              "components": [
                {
                  "internalType": "uint256",
                  "name": "id",
                  "type": "uint256"
                },
                {
                  "internalType": "string",
                  "name": "content",
                  "type": "string"
                },
                {
                  "internalType": "address",
                  "name": "sender",
                  "type": "address"
                },
                {
                  "internalType": "bool",
                  "name": "isDeleted",
                  "type": "bool"
                },
                {
                  "internalType": "uint256",
                  "name": "created",
                  "type": "uint256"
                }
              ],
              "internalType": "struct MessageModel",
              "name": "message",
              "type": "tuple"
            },
            {
              "components": [
                {
                  "internalType": "string",
                  "name": "name",
                  "type": "string"
                },
                {
                  "internalType": "address",
                  "name": "wallet",
                  "type": "address"
                },
                {
                  "internalType": "bool",
                  "name": "active",
                  "type": "bool"
                },
                {
                  "internalType": "uint256",
                  "name": "created",
                  "type": "uint256"
                }
              ],
              "internalType": "struct UserModel",
              "name": "user",
              "type": "tuple"
            }
          ],
          "indexed": false,
          "internalType": "struct MessageUserModel[]",
          "name": "",
          "type": "tuple[]"
        }
      ],
      "name": "UnreadUpdated",
      "type": "event"
    },
    {
      "anonymous": false,
      "inputs": [
        {
          "indexed": true,
          "internalType": "address",
          "name": "sender",
          "type": "address"
        },
        {
          "indexed": false,
          "internalType": "string",
          "name": "name",
          "type": "string"
        }
      ],
      "name": "UserCreated",
      "type": "event"
    },
    {
      "inputs": [
        {
          "internalType": "string",
          "name": "name",
          "type": "string"
        }
      ],
      "name": "createUser",
      "outputs": [],
      "stateMutability": "payable",
      "type": "function"
    },
    {
      "inputs": [
        {
          "internalType": "uint256",
          "name": "id",
          "type": "uint256"
        }
      ],
      "name": "deleteMessage",
      "outputs": [],
      "stateMutability": "nonpayable",
      "type": "function"
    },
    {
      "inputs": [
        {
          "internalType": "address",
          "name": "user",
          "type": "address"
        }
      ],
      "name": "disableUser",
      "outputs": [],
      "stateMutability": "nonpayable",
      "type": "function"
    },
    {
      "inputs": [],
      "name": "fee",
      "outputs": [
        {
          "internalType": "uint256",
          "name": "",
          "type": "uint256"
        }
      ],
      "stateMutability": "view",
      "type": "function"
    },
    {
      "inputs": [],
      "name": "getAllMessages",
      "outputs": [
        {
          "components": [
            {
              "components": [
                {
                  "internalType": "uint256",
                  "name": "id",
                  "type": "uint256"
                },
                {
                  "internalType": "string",
                  "name": "content",
                  "type": "string"
                },
                {
                  "internalType": "address",
                  "name": "sender",
                  "type": "address"
                },
                {
                  "internalType": "bool",
                  "name": "isDeleted",
                  "type": "bool"
                },
                {
                  "internalType": "uint256",
                  "name": "created",
                  "type": "uint256"
                }
              ],
              "internalType": "struct MessageModel",
              "name": "message",
              "type": "tuple"
            },
            {
              "components": [
                {
                  "internalType": "string",
                  "name": "name",
                  "type": "string"
                },
                {
                  "internalType": "address",
                  "name": "wallet",
                  "type": "address"
                },
                {
                  "internalType": "bool",
                  "name": "active",
                  "type": "bool"
                },
                {
                  "internalType": "uint256",
                  "name": "created",
                  "type": "uint256"
                }
              ],
              "internalType": "struct UserModel",
              "name": "user",
              "type": "tuple"
            }
          ],
          "internalType": "struct MessageUserModel[]",
          "name": "",
          "type": "tuple[]"
        }
      ],
      "stateMutability": "view",
      "type": "function"
    },
    {
      "inputs": [
        {
          "internalType": "address",
          "name": "user",
          "type": "address"
        }
      ],
      "name": "getUser",
      "outputs": [
        {
          "components": [
            {
              "internalType": "string",
              "name": "name",
              "type": "string"
            },
            {
              "internalType": "address",
              "name": "wallet",
              "type": "address"
            },
            {
              "internalType": "bool",
              "name": "active",
              "type": "bool"
            },
            {
              "internalType": "uint256",
              "name": "created",
              "type": "uint256"
            }
          ],
          "internalType": "struct UserModel",
          "name": "",
          "type": "tuple"
        }
      ],
      "stateMutability": "view",
      "type": "function"
    },
    {
      "inputs": [],
      "name": "getUserUnreadMessageCount",
      "outputs": [
        {
          "internalType": "uint256",
          "name": "",
          "type": "uint256"
        }
      ],
      "stateMutability": "view",
      "type": "function"
    },
    {
      "inputs": [],
      "name": "getUserUnreadMessages",
      "outputs": [
        {
          "components": [
            {
              "components": [
                {
                  "internalType": "uint256",
                  "name": "id",
                  "type": "uint256"
                },
                {
                  "internalType": "string",
                  "name": "content",
                  "type": "string"
                },
                {
                  "internalType": "address",
                  "name": "sender",
                  "type": "address"
                },
                {
                  "internalType": "bool",
                  "name": "isDeleted",
                  "type": "bool"
                },
                {
                  "internalType": "uint256",
                  "name": "created",
                  "type": "uint256"
                }
              ],
              "internalType": "struct MessageModel",
              "name": "message",
              "type": "tuple"
            },
            {
              "components": [
                {
                  "internalType": "string",
                  "name": "name",
                  "type": "string"
                },
                {
                  "internalType": "address",
                  "name": "wallet",
                  "type": "address"
                },
                {
                  "internalType": "bool",
                  "name": "active",
                  "type": "bool"
                },
                {
                  "internalType": "uint256",
                  "name": "created",
                  "type": "uint256"
                }
              ],
              "internalType": "struct UserModel",
              "name": "user",
              "type": "tuple"
            }
          ],
          "internalType": "struct MessageUserModel[]",
          "name": "",
          "type": "tuple[]"
        }
      ],
      "stateMutability": "view",
      "type": "function"
    },
    {
      "inputs": [
        {
          "internalType": "uint256",
          "name": "newFee",
          "type": "uint256"
        }
      ],
      "name": "setFee",
      "outputs": [],
      "stateMutability": "nonpayable",
      "type": "function"
    },
    {
      "inputs": [],
      "name": "totalActiveMessages",
      "outputs": [
        {
          "internalType": "uint256",
          "name": "",
          "type": "uint256"
        }
      ],
      "stateMutability": "view",
      "type": "function"
    },
    {
      "inputs": [],
      "name": "updateUserMessageAsReadAndEmit",
      "outputs": [],
      "stateMutability": "nonpayable",
      "type": "function"
    },
    {
      "inputs": [
        {
          "internalType": "string",
          "name": "name",
          "type": "string"
        }
      ],
      "name": "updateUserName",
      "outputs": [],
      "stateMutability": "payable",
      "type": "function"
    },
    {
      "inputs": [],
      "name": "withdrawBalance",
      "outputs": [],
      "stateMutability": "nonpayable",
      "type": "function"
    },
    {
      "inputs": [
        {
          "internalType": "string",
          "name": "content",
          "type": "string"
        }
      ],
      "name": "writeMessage",
      "outputs": [],
      "stateMutability": "nonpayable",
      "type": "function"
    }
  ],
  "bytecode": "0x6080604052662386f26fc1000060035534801561001b57600080fd5b50336000806101000a81548173ffffffffffffffffffffffffffffffffffffffff021916908373ffffffffffffffffffffffffffffffffffffffff1602179055506136ef8061006b6000396000f3fe6080604052600436106100dd5760003560e01c8063873783f51161007f578063b888690a11610059578063b888690a1461026c578063d009bed714610295578063ddca3f43146102ac578063ee6649a1146102d7576100dd565b8063873783f5146101fc578063af9036a114610227578063b588bfad14610243576100dd565b806354ca0597116100bb57806354ca0597146101545780635fd8c7101461017f57806369fe0e2d146101965780636f77926b146101bf576100dd565b80630f7cd5c6146100e2578063507ffba51461010d57806353f5e38014610129575b600080fd5b3480156100ee57600080fd5b506100f7610300565b6040516101049190612a59565b60405180910390f35b61012760048036038101906101229190612bc4565b6105da565b005b34801561013557600080fd5b5061013e610861565b60405161014b9190612a59565b60405180910390f35b34801561016057600080fd5b5061016961087b565b6040516101769190612c1c565b60405180910390f35b34801561018b57600080fd5b50610194610b4a565b005b3480156101a257600080fd5b506101bd60048036038101906101b89190612c63565b610ce0565b005b3480156101cb57600080fd5b506101e660048036038101906101e19190612cbc565b610d78565b6040516101f39190612d4c565b60405180910390f35b34801561020857600080fd5b506102116111eb565b60405161021e9190612c1c565b60405180910390f35b610241600480360381019061023c9190612bc4565b6111f1565b005b34801561024f57600080fd5b5061026a60048036038101906102659190612bc4565b61150a565b005b34801561027857600080fd5b50610293600480360381019061028e9190612c63565b611923565b005b3480156102a157600080fd5b506102aa611dd9565b005b3480156102b857600080fd5b506102c16120ed565b6040516102ce9190612c1c565b60405180910390f35b3480156102e357600080fd5b506102fe60048036038101906102f99190612cbc565b6120f3565b005b60606000600460003373ffffffffffffffffffffffffffffffffffffffff1673ffffffffffffffffffffffffffffffffffffffff16815260200190815260200160002060405180608001604052908160008201805461035e90612d9d565b80601f016020809104026020016040519081016040528092919081815260200182805461038a90612d9d565b80156103d75780601f106103ac576101008083540402835291602001916103d7565b820191906000526020600020905b8154815290600101906020018083116103ba57829003601f168201915b505050505081526020016001820160009054906101000a900473ffffffffffffffffffffffffffffffffffffffff1673ffffffffffffffffffffffffffffffffffffffff1673ffffffffffffffffffffffffffffffffffffffff1681526020016001820160149054906101000a900460ff1615151515815260200160028201548152505090506000600460003373ffffffffffffffffffffffffffffffffffffffff1673ffffffffffffffffffffffffffffffffffffffff16815260200190815260200160002060000180546104ac90612d9d565b9050036104ee576040517f08c379a00000000000000000000000000000000000000000000000000000000081526004016104e590612e2b565b60405180910390fd5b600460003373ffffffffffffffffffffffffffffffffffffffff1673ffffffffffffffffffffffffffffffffffffffff16815260200190815260200160002060010160149054906101000a900460ff1661057d576040517f08c379a000000000000000000000000000000000000000000000000000000000815260040161057490612e97565b60405180910390fd5b6000600660003373ffffffffffffffffffffffffffffffffffffffff1673ffffffffffffffffffffffffffffffffffffffff16815260200190815260200160002054905060006105cf826002546122bf565b905080935050505090565b600081511161061e576040517f08c379a000000000000000000000000000000000000000000000000000000000815260040161061590612f03565b60405180910390fd5b6000600460003373ffffffffffffffffffffffffffffffffffffffff1673ffffffffffffffffffffffffffffffffffffffff168152602001908152602001600020600001805461066d90612d9d565b9050146106af576040517f08c379a00000000000000000000000000000000000000000000000000000000081526004016106a690612f6f565b60405180910390fd5b6003543410156106f4576040517f08c379a00000000000000000000000000000000000000000000000000000000081526004016106eb90612fdb565b60405180910390fd5b60405180608001604052808281526020013373ffffffffffffffffffffffffffffffffffffffff16815260200160011515815260200142815250600460003373ffffffffffffffffffffffffffffffffffffffff1673ffffffffffffffffffffffffffffffffffffffff168152602001908152602001600020600082015181600001908161078291906131a7565b5060208201518160010160006101000a81548173ffffffffffffffffffffffffffffffffffffffff021916908373ffffffffffffffffffffffffffffffffffffffff16021790555060408201518160010160146101000a81548160ff021916908315150217905550606082015181600201559050503373ffffffffffffffffffffffffffffffffffffffff167f9954bce02f72fbdef0fa668ac6f42e434b5829615dac2fb22448054d2359d4f68260405161083d91906132b2565b60405180910390a234600160008282546108579190613303565b9250508190555050565b6060600061087260006002546122bf565b90508091505090565b600080600460003373ffffffffffffffffffffffffffffffffffffffff1673ffffffffffffffffffffffffffffffffffffffff1681526020019081526020016000206040518060800160405290816000820180546108d890612d9d565b80601f016020809104026020016040519081016040528092919081815260200182805461090490612d9d565b80156109515780601f1061092657610100808354040283529160200191610951565b820191906000526020600020905b81548152906001019060200180831161093457829003601f168201915b505050505081526020016001820160009054906101000a900473ffffffffffffffffffffffffffffffffffffffff1673ffffffffffffffffffffffffffffffffffffffff1673ffffffffffffffffffffffffffffffffffffffff1681526020016001820160149054906101000a900460ff1615151515815260200160028201548152505090506000600460003373ffffffffffffffffffffffffffffffffffffffff1673ffffffffffffffffffffffffffffffffffffffff1681526020019081526020016000206000018054610a2690612d9d565b905003610a68576040517f08c379a0000000000000000000000000000000000000000000000000000000008152600401610a5f90612e2b565b60405180910390fd5b600460003373ffffffffffffffffffffffffffffffffffffffff1673ffffffffffffffffffffffffffffffffffffffff16815260200190815260200160002060010160149054906101000a900460ff16610af7576040517f08c379a0000000000000000000000000000000000000000000000000000000008152600401610aee90612e97565b60405180910390fd5b600660003373ffffffffffffffffffffffffffffffffffffffff1673ffffffffffffffffffffffffffffffffffffffff16815260200190815260200160002054600254610b449190613337565b91505090565b60008054906101000a900473ffffffffffffffffffffffffffffffffffffffff1673ffffffffffffffffffffffffffffffffffffffff163373ffffffffffffffffffffffffffffffffffffffff1614610bd8576040517f08c379a0000000000000000000000000000000000000000000000000000000008152600401610bcf90612e2b565b60405180910390fd5b600060015411610c1d576040517f08c379a0000000000000000000000000000000000000000000000000000000008152600401610c14906133b7565b60405180910390fd5b3373ffffffffffffffffffffffffffffffffffffffff166108fc6001549081150290604051600060405180830381858888f19350505050158015610c65573d6000803e3d6000fd5b5060008054906101000a900473ffffffffffffffffffffffffffffffffffffffff1673ffffffffffffffffffffffffffffffffffffffff167fddc398b321237a8d40ac914388309c2f52a08c134e4dc4ce61e32f57cb7d80f1600154604051610cce9190612c1c565b60405180910390a26000600181905550565b60008054906101000a900473ffffffffffffffffffffffffffffffffffffffff1673ffffffffffffffffffffffffffffffffffffffff163373ffffffffffffffffffffffffffffffffffffffff1614610d6e576040517f08c379a0000000000000000000000000000000000000000000000000000000008152600401610d6590612e2b565b60405180910390fd5b8060038190555050565b610d806126c8565b6000600460003373ffffffffffffffffffffffffffffffffffffffff1673ffffffffffffffffffffffffffffffffffffffff168152602001908152602001600020604051806080016040529081600082018054610ddc90612d9d565b80601f0160208091040260200160405190810160405280929190818152602001828054610e0890612d9d565b8015610e555780601f10610e2a57610100808354040283529160200191610e55565b820191906000526020600020905b815481529060010190602001808311610e3857829003601f168201915b505050505081526020016001820160009054906101000a900473ffffffffffffffffffffffffffffffffffffffff1673ffffffffffffffffffffffffffffffffffffffff1673ffffffffffffffffffffffffffffffffffffffff1681526020016001820160149054906101000a900460ff1615151515815260200160028201548152505090506000600460003373ffffffffffffffffffffffffffffffffffffffff1673ffffffffffffffffffffffffffffffffffffffff1681526020019081526020016000206000018054610f2a90612d9d565b905003610f6c576040517f08c379a0000000000000000000000000000000000000000000000000000000008152600401610f6390612e2b565b60405180910390fd5b600460003373ffffffffffffffffffffffffffffffffffffffff1673ffffffffffffffffffffffffffffffffffffffff16815260200190815260200160002060010160149054906101000a900460ff16610ffb576040517f08c379a0000000000000000000000000000000000000000000000000000000008152600401610ff290612e97565b60405180910390fd5b6000600460008573ffffffffffffffffffffffffffffffffffffffff1673ffffffffffffffffffffffffffffffffffffffff168152602001908152602001600020600001805461104a90612d9d565b90500361108c576040517f08c379a000000000000000000000000000000000000000000000000000000000815260040161108390613423565b60405180910390fd5b600460008473ffffffffffffffffffffffffffffffffffffffff1673ffffffffffffffffffffffffffffffffffffffff1681526020019081526020016000206040518060800160405290816000820180546110e690612d9d565b80601f016020809104026020016040519081016040528092919081815260200182805461111290612d9d565b801561115f5780601f106111345761010080835404028352916020019161115f565b820191906000526020600020905b81548152906001019060200180831161114257829003601f168201915b505050505081526020016001820160009054906101000a900473ffffffffffffffffffffffffffffffffffffffff1673ffffffffffffffffffffffffffffffffffffffff1673ffffffffffffffffffffffffffffffffffffffff1681526020016001820160149054906101000a900460ff16151515158152602001600282015481525050915050919050565b60025481565b6000600460003373ffffffffffffffffffffffffffffffffffffffff1673ffffffffffffffffffffffffffffffffffffffff16815260200190815260200160002060405180608001604052908160008201805461124d90612d9d565b80601f016020809104026020016040519081016040528092919081815260200182805461127990612d9d565b80156112c65780601f1061129b576101008083540402835291602001916112c6565b820191906000526020600020905b8154815290600101906020018083116112a957829003601f168201915b505050505081526020016001820160009054906101000a900473ffffffffffffffffffffffffffffffffffffffff1673ffffffffffffffffffffffffffffffffffffffff1673ffffffffffffffffffffffffffffffffffffffff1681526020016001820160149054906101000a900460ff1615151515815260200160028201548152505090506000600460003373ffffffffffffffffffffffffffffffffffffffff1673ffffffffffffffffffffffffffffffffffffffff168152602001908152602001600020600001805461139b90612d9d565b9050036113dd576040517f08c379a00000000000000000000000000000000000000000000000000000000081526004016113d490612e2b565b60405180910390fd5b600460003373ffffffffffffffffffffffffffffffffffffffff1673ffffffffffffffffffffffffffffffffffffffff16815260200190815260200160002060010160149054906101000a900460ff1661146c576040517f08c379a000000000000000000000000000000000000000000000000000000000815260040161146390612e97565b60405180910390fd5b66038d7ea4c680003410156114b6576040517f08c379a00000000000000000000000000000000000000000000000000000000081526004016114ad90612fdb565b60405180910390fd5b81600460003373ffffffffffffffffffffffffffffffffffffffff1673ffffffffffffffffffffffffffffffffffffffff168152602001908152602001600020600001908161150591906131a7565b505050565b6000600460003373ffffffffffffffffffffffffffffffffffffffff1673ffffffffffffffffffffffffffffffffffffffff16815260200190815260200160002060405180608001604052908160008201805461156690612d9d565b80601f016020809104026020016040519081016040528092919081815260200182805461159290612d9d565b80156115df5780601f106115b4576101008083540402835291602001916115df565b820191906000526020600020905b8154815290600101906020018083116115c257829003601f168201915b505050505081526020016001820160009054906101000a900473ffffffffffffffffffffffffffffffffffffffff1673ffffffffffffffffffffffffffffffffffffffff1673ffffffffffffffffffffffffffffffffffffffff1681526020016001820160149054906101000a900460ff1615151515815260200160028201548152505090506000600460003373ffffffffffffffffffffffffffffffffffffffff1673ffffffffffffffffffffffffffffffffffffffff16815260200190815260200160002060000180546116b490612d9d565b9050036116f6576040517f08c379a00000000000000000000000000000000000000000000000000000000081526004016116ed90612e2b565b60405180910390fd5b600460003373ffffffffffffffffffffffffffffffffffffffff1673ffffffffffffffffffffffffffffffffffffffff16815260200190815260200160002060010160149054906101000a900460ff16611785576040517f08c379a000000000000000000000000000000000000000000000000000000000815260040161177c90612e97565b60405180910390fd5b61012c825111156117cb576040517f08c379a00000000000000000000000000000000000000000000000000000000081526004016117c2906134b5565b60405180910390fd5b6040518060a0016040528060025481526020018381526020013373ffffffffffffffffffffffffffffffffffffffff1681526020016000151581526020014281525060056000600254815260200190815260200160002060008201518160000155602082015181600101908161184191906131a7565b5060408201518160020160006101000a81548173ffffffffffffffffffffffffffffffffffffffff021916908373ffffffffffffffffffffffffffffffffffffffff16021790555060608201518160020160146101000a81548160ff021916908315150217905550608082015181600301559050503373ffffffffffffffffffffffffffffffffffffffff166002547fc4ae556642cbe7e693d6cce227775ac9ab2298e3032f588ccb496b83110d0e88846040516118ff91906132b2565b60405180910390a36002600081548092919061191a906134d5565b91905055505050565b6000600460003373ffffffffffffffffffffffffffffffffffffffff1673ffffffffffffffffffffffffffffffffffffffff16815260200190815260200160002060405180608001604052908160008201805461197f90612d9d565b80601f01602080910402602001604051908101604052809291908181526020018280546119ab90612d9d565b80156119f85780601f106119cd576101008083540402835291602001916119f8565b820191906000526020600020905b8154815290600101906020018083116119db57829003601f168201915b505050505081526020016001820160009054906101000a900473ffffffffffffffffffffffffffffffffffffffff1673ffffffffffffffffffffffffffffffffffffffff1673ffffffffffffffffffffffffffffffffffffffff1681526020016001820160149054906101000a900460ff1615151515815260200160028201548152505090506000600460003373ffffffffffffffffffffffffffffffffffffffff1673ffffffffffffffffffffffffffffffffffffffff1681526020019081526020016000206000018054611acd90612d9d565b905003611b0f576040517f08c379a0000000000000000000000000000000000000000000000000000000008152600401611b0690612e2b565b60405180910390fd5b600460003373ffffffffffffffffffffffffffffffffffffffff1673ffffffffffffffffffffffffffffffffffffffff16815260200190815260200160002060010160149054906101000a900460ff16611b9e576040517f08c379a0000000000000000000000000000000000000000000000000000000008152600401611b9590612e97565b60405180910390fd5b6000600560008481526020019081526020016000206001018054611bc190612d9d565b905003611c03576040517f08c379a0000000000000000000000000000000000000000000000000000000008152600401611bfa90613569565b60405180910390fd5b3373ffffffffffffffffffffffffffffffffffffffff166005600084815260200190815260200160002060020160009054906101000a900473ffffffffffffffffffffffffffffffffffffffff1673ffffffffffffffffffffffffffffffffffffffff161480611cbe575060008054906101000a900473ffffffffffffffffffffffffffffffffffffffff1673ffffffffffffffffffffffffffffffffffffffff163373ffffffffffffffffffffffffffffffffffffffff16145b611cfd576040517f08c379a0000000000000000000000000000000000000000000000000000000008152600401611cf490612e2b565b60405180910390fd5b6005600083815260200190815260200160002060020160149054906101000a900460ff1615611d61576040517f08c379a0000000000000000000000000000000000000000000000000000000008152600401611d58906135d5565b60405180910390fd5b60016005600084815260200190815260200160002060020160146101000a81548160ff02191690831515021790555060026000815480929190611da3906135f5565b9190505550817f6279be045e4d4d5a0eba7b1f0e578322b6dd7c01e92f0991700a02180904654b60405160405180910390a25050565b6000600460003373ffffffffffffffffffffffffffffffffffffffff1673ffffffffffffffffffffffffffffffffffffffff168152602001908152602001600020604051806080016040529081600082018054611e3590612d9d565b80601f0160208091040260200160405190810160405280929190818152602001828054611e6190612d9d565b8015611eae5780601f10611e8357610100808354040283529160200191611eae565b820191906000526020600020905b815481529060010190602001808311611e9157829003601f168201915b505050505081526020016001820160009054906101000a900473ffffffffffffffffffffffffffffffffffffffff1673ffffffffffffffffffffffffffffffffffffffff1673ffffffffffffffffffffffffffffffffffffffff1681526020016001820160149054906101000a900460ff1615151515815260200160028201548152505090506000600460003373ffffffffffffffffffffffffffffffffffffffff1673ffffffffffffffffffffffffffffffffffffffff1681526020019081526020016000206000018054611f8390612d9d565b905003611fc5576040517f08c379a0000000000000000000000000000000000000000000000000000000008152600401611fbc90612e2b565b60405180910390fd5b600460003373ffffffffffffffffffffffffffffffffffffffff1673ffffffffffffffffffffffffffffffffffffffff16815260200190815260200160002060010160149054906101000a900460ff16612054576040517f08c379a000000000000000000000000000000000000000000000000000000000815260040161204b90612e97565b60405180910390fd5b6000600660003373ffffffffffffffffffffffffffffffffffffffff1673ffffffffffffffffffffffffffffffffffffffff16815260200190815260200160002054905060006120a6826002546122bf565b90506120b13361267f565b7f8cbf4db0f341d403a3fda139f00bf50cf4b7c938bdbadbf8690edaaa34a91486816040516120e09190612a59565b60405180910390a1505050565b60035481565b60008054906101000a900473ffffffffffffffffffffffffffffffffffffffff1673ffffffffffffffffffffffffffffffffffffffff163373ffffffffffffffffffffffffffffffffffffffff1614612181576040517f08c379a000000000000000000000000000000000000000000000000000000000815260040161217890612e2b565b60405180910390fd5b6000600460008373ffffffffffffffffffffffffffffffffffffffff1673ffffffffffffffffffffffffffffffffffffffff16815260200190815260200160002060000180546121d090612d9d565b905003612212576040517f08c379a00000000000000000000000000000000000000000000000000000000081526004016122099061366a565b60405180910390fd5b600460008273ffffffffffffffffffffffffffffffffffffffff1673ffffffffffffffffffffffffffffffffffffffff16815260200190815260200160002060010160149054906101000a900460ff1615600460008373ffffffffffffffffffffffffffffffffffffffff1673ffffffffffffffffffffffffffffffffffffffff16815260200190815260200160002060010160146101000a81548160ff02191690831515021790555050565b6060600083836122cf9190613337565b67ffffffffffffffff8111156122e8576122e7612a99565b5b60405190808252806020026020018201604052801561232157816020015b61230e612708565b8152602001906001900390816123065790505b50905060008490505b83811015612674576005600082815260200190815260200160002060020160149054906101000a900460ff1661266157600460006005600084815260200190815260200160002060020160009054906101000a900473ffffffffffffffffffffffffffffffffffffffff1673ffffffffffffffffffffffffffffffffffffffff1673ffffffffffffffffffffffffffffffffffffffff1681526020019081526020016000206040518060800160405290816000820180546123ea90612d9d565b80601f016020809104026020016040519081016040528092919081815260200182805461241690612d9d565b80156124635780601f1061243857610100808354040283529160200191612463565b820191906000526020600020905b81548152906001019060200180831161244657829003601f168201915b505050505081526020016001820160009054906101000a900473ffffffffffffffffffffffffffffffffffffffff1673ffffffffffffffffffffffffffffffffffffffff1673ffffffffffffffffffffffffffffffffffffffff1681526020016001820160149054906101000a900460ff161515151581526020016002820154815250508282815181106124fa576124f961368a565b5b602002602001015160200181905250600560008281526020019081526020016000206040518060a00160405290816000820154815260200160018201805461254190612d9d565b80601f016020809104026020016040519081016040528092919081815260200182805461256d90612d9d565b80156125ba5780601f1061258f576101008083540402835291602001916125ba565b820191906000526020600020905b81548152906001019060200180831161259d57829003601f168201915b505050505081526020016002820160009054906101000a900473ffffffffffffffffffffffffffffffffffffffff1673ffffffffffffffffffffffffffffffffffffffff1673ffffffffffffffffffffffffffffffffffffffff1681526020016002820160149054906101000a900460ff161515151581526020016003820154815250508282815181106126515761265061368a565b5b6020026020010151600001819052505b808061266c906134d5565b91505061232a565b508091505092915050565b600254600660008373ffffffffffffffffffffffffffffffffffffffff1673ffffffffffffffffffffffffffffffffffffffff1681526020019081526020016000208190555050565b604051806080016040528060608152602001600073ffffffffffffffffffffffffffffffffffffffff168152602001600015158152602001600081525090565b604051806040016040528061271b61272e565b81526020016127286126c8565b81525090565b6040518060a001604052806000815260200160608152602001600073ffffffffffffffffffffffffffffffffffffffff168152602001600015158152602001600081525090565b600081519050919050565b600082825260208201905092915050565b6000819050602082019050919050565b6000819050919050565b6127b4816127a1565b82525050565b600081519050919050565b600082825260208201905092915050565b60005b838110156127f45780820151818401526020810190506127d9565b60008484015250505050565b6000601f19601f8301169050919050565b600061281c826127ba565b61282681856127c5565b93506128368185602086016127d6565b61283f81612800565b840191505092915050565b600073ffffffffffffffffffffffffffffffffffffffff82169050919050565b60006128758261284a565b9050919050565b6128858161286a565b82525050565b60008115159050919050565b6128a08161288b565b82525050565b600060a0830160008301516128be60008601826127ab565b50602083015184820360208601526128d68282612811565b91505060408301516128eb604086018261287c565b5060608301516128fe6060860182612897565b50608083015161291160808601826127ab565b508091505092915050565b600060808301600083015184820360008601526129398282612811565b915050602083015161294e602086018261287c565b5060408301516129616040860182612897565b50606083015161297460608601826127ab565b508091505092915050565b6000604083016000830151848203600086015261299c82826128a6565b915050602083015184820360208601526129b6828261291c565b9150508091505092915050565b60006129cf838361297f565b905092915050565b6000602082019050919050565b60006129ef82612775565b6129f98185612780565b935083602082028501612a0b85612791565b8060005b85811015612a475784840389528151612a2885826129c3565b9450612a33836129d7565b925060208a01995050600181019050612a0f565b50829750879550505050505092915050565b60006020820190508181036000830152612a7381846129e4565b905092915050565b6000604051905090565b600080fd5b600080fd5b600080fd5b600080fd5b7f4e487b7100000000000000000000000000000000000000000000000000000000600052604160045260246000fd5b612ad182612800565b810181811067ffffffffffffffff82111715612af057612aef612a99565b5b80604052505050565b6000612b03612a7b565b9050612b0f8282612ac8565b919050565b600067ffffffffffffffff821115612b2f57612b2e612a99565b5b612b3882612800565b9050602081019050919050565b82818337600083830152505050565b6000612b67612b6284612b14565b612af9565b905082815260208101848484011115612b8357612b82612a94565b5b612b8e848285612b45565b509392505050565b600082601f830112612bab57612baa612a8f565b5b8135612bbb848260208601612b54565b91505092915050565b600060208284031215612bda57612bd9612a85565b5b600082013567ffffffffffffffff811115612bf857612bf7612a8a565b5b612c0484828501612b96565b91505092915050565b612c16816127a1565b82525050565b6000602082019050612c316000830184612c0d565b92915050565b612c40816127a1565b8114612c4b57600080fd5b50565b600081359050612c5d81612c37565b92915050565b600060208284031215612c7957612c78612a85565b5b6000612c8784828501612c4e565b91505092915050565b612c998161286a565b8114612ca457600080fd5b50565b600081359050612cb681612c90565b92915050565b600060208284031215612cd257612cd1612a85565b5b6000612ce084828501612ca7565b91505092915050565b60006080830160008301518482036000860152612d068282612811565b9150506020830151612d1b602086018261287c565b506040830151612d2e6040860182612897565b506060830151612d4160608601826127ab565b508091505092915050565b60006020820190508181036000830152612d668184612ce9565b905092915050565b7f4e487b7100000000000000000000000000000000000000000000000000000000600052602260045260246000fd5b60006002820490506001821680612db557607f821691505b602082108103612dc857612dc7612d6e565b5b50919050565b600082825260208201905092915050565b7f53656e646572206973206e6f7420617574686f72697a65640000000000000000600082015250565b6000612e15601883612dce565b9150612e2082612ddf565b602082019050919050565b60006020820190508181036000830152612e4481612e08565b9050919050565b7f5573657220696e61637469766500000000000000000000000000000000000000600082015250565b6000612e81600d83612dce565b9150612e8c82612e4b565b602082019050919050565b60006020820190508181036000830152612eb081612e74565b9050919050565b7f4e69636b6e616d65206d757374206e6f7420626520656d707479000000000000600082015250565b6000612eed601a83612dce565b9150612ef882612eb7565b602082019050919050565b60006020820190508181036000830152612f1c81612ee0565b9050919050565b7f5573657220616c72656164792065786973747300000000000000000000000000600082015250565b6000612f59601383612dce565b9150612f6482612f23565b602082019050919050565b60006020820190508181036000830152612f8881612f4c565b9050919050565b7f496e73756666696369656e742076616c75650000000000000000000000000000600082015250565b6000612fc5601283612dce565b9150612fd082612f8f565b602082019050919050565b60006020820190508181036000830152612ff481612fb8565b9050919050565b60008190508160005260206000209050919050565b60006020601f8301049050919050565b600082821b905092915050565b60006008830261305d7fffffffffffffffffffffffffffffffffffffffffffffffffffffffffffffffff82613020565b6130678683613020565b95508019841693508086168417925050509392505050565b6000819050919050565b60006130a461309f61309a846127a1565b61307f565b6127a1565b9050919050565b6000819050919050565b6130be83613089565b6130d26130ca826130ab565b84845461302d565b825550505050565b600090565b6130e76130da565b6130f28184846130b5565b505050565b5b818110156131165761310b6000826130df565b6001810190506130f8565b5050565b601f82111561315b5761312c81612ffb565b61313584613010565b81016020851015613144578190505b61315861315085613010565b8301826130f7565b50505b505050565b600082821c905092915050565b600061317e60001984600802613160565b1980831691505092915050565b6000613197838361316d565b9150826002028217905092915050565b6131b0826127ba565b67ffffffffffffffff8111156131c9576131c8612a99565b5b6131d38254612d9d565b6131de82828561311a565b600060209050601f83116001811461321157600084156131ff578287015190505b613209858261318b565b865550613271565b601f19841661321f86612ffb565b60005b8281101561324757848901518255600182019150602085019450602081019050613222565b868310156132645784890151613260601f89168261316d565b8355505b6001600288020188555050505b505050505050565b6000613284826127ba565b61328e8185612dce565b935061329e8185602086016127d6565b6132a781612800565b840191505092915050565b600060208201905081810360008301526132cc8184613279565b905092915050565b7f4e487b7100000000000000000000000000000000000000000000000000000000600052601160045260246000fd5b600061330e826127a1565b9150613319836127a1565b9250828201905080821115613331576133306132d4565b5b92915050565b6000613342826127a1565b915061334d836127a1565b9250828203905081811115613365576133646132d4565b5b92915050565b7f4e6f2062616c616e636520617661696c61626c6520746f207769746864726177600082015250565b60006133a1602083612dce565b91506133ac8261336b565b602082019050919050565b600060208201905081810360008301526133d081613394565b9050919050565b7f55736572204e6f74204578697374000000000000000000000000000000000000600082015250565b600061340d600e83612dce565b9150613418826133d7565b602082019050919050565b6000602082019050818103600083015261343c81613400565b9050919050565b7f546865206d65737361676520657863656564732033303020636861726163746560008201527f7273000000000000000000000000000000000000000000000000000000000000602082015250565b600061349f602283612dce565b91506134aa82613443565b604082019050919050565b600060208201905081810360008301526134ce81613492565b9050919050565b60006134e0826127a1565b91507fffffffffffffffffffffffffffffffffffffffffffffffffffffffffffffffff8203613512576135116132d4565b5b600182019050919050565b7f4d657373616765206e6f7420666f756e642e0000000000000000000000000000600082015250565b6000613553601283612dce565b915061355e8261351d565b602082019050919050565b6000602082019050818103600083015261358281613546565b9050919050565b7f4d6573736167652069732064656c657465640000000000000000000000000000600082015250565b60006135bf601283612dce565b91506135ca82613589565b602082019050919050565b600060208201905081810360008301526135ee816135b2565b9050919050565b6000613600826127a1565b915060008203613613576136126132d4565b5b600182039050919050565b7f55736572206e6f7420666f756e642e0000000000000000000000000000000000600082015250565b6000613654600f83612dce565b915061365f8261361e565b602082019050919050565b6000602082019050818103600083015261368381613647565b9050919050565b7f4e487b7100000000000000000000000000000000000000000000000000000000600052603260045260246000fdfea264697066735822122019b206e9b4cea6dbb4598cd378d17cf0f7351c6b593112e3f7cb93ccf896632064736f6c63430008110033",
  "linkReferences": {},
  "deployedLinkReferences": {}
}