{
  "_format": "hh-sol-artifact-1",
  "contractName": "PublicMessaging",
  "sourceName": "contracts/PublicMessaging.sol",
  "abi": [
    {
      "inputs": [],
      "stateMutability": "nonpayable",
      "type": "constructor"
    },
    {
      "anonymous": false,
      "inputs": [
        {
          "indexed": true,
          "internalType": "address",
          "name": "recipient",
          "type": "address"
        },
        {
          "indexed": false,
          "internalType": "uint256",
          "name": "amount",
          "type": "uint256"
        }
      ],
      "name": "BalanceWithdrawn",
      "type": "event"
    },
    {
      "anonymous": false,
      "inputs": [
        {
          "indexed": true,
          "internalType": "uint256",
          "name": "id",
          "type": "uint256"
        }
      ],
      "name": "MessageDeleted",
      "type": "event"
    },
    {
      "anonymous": false,
      "inputs": [
        {
          "indexed": true,
          "internalType": "uint256",
          "name": "id",
          "type": "uint256"
        },
        {
          "indexed": false,
          "internalType": "string",
          "name": "content",
          "type": "string"
        },
        {
          "indexed": true,
          "internalType": "address",
          "name": "sender",
          "type": "address"
        }
      ],
      "name": "MessageSent",
      "type": "event"
    },
    {
      "anonymous": false,
      "inputs": [
        {
          "components": [
            {
              "components": [
                {
                  "internalType": "uint256",
                  "name": "id",
                  "type": "uint256"
                },
                {
                  "internalType": "string",
                  "name": "content",
                  "type": "string"
                },
                {
                  "internalType": "address",
                  "name": "sender",
                  "type": "address"
                },
                {
                  "internalType": "bool",
                  "name": "isDeleted",
                  "type": "bool"
                },
                {
                  "internalType": "uint256",
                  "name": "created",
                  "type": "uint256"
                }
              ],
              "internalType": "struct MessageModel",
              "name": "message",
              "type": "tuple"
            },
            {
              "components": [
                {
                  "internalType": "string",
                  "name": "name",
                  "type": "string"
                },
                {
                  "internalType": "address",
                  "name": "wallet",
                  "type": "address"
                },
                {
                  "internalType": "bool",
                  "name": "active",
                  "type": "bool"
                },
                {
                  "internalType": "uint256",
                  "name": "created",
                  "type": "uint256"
                }
              ],
              "internalType": "struct UserModel",
              "name": "user",
              "type": "tuple"
            }
          ],
          "indexed": false,
          "internalType": "struct MessageUserModel[]",
          "name": "",
          "type": "tuple[]"
        }
      ],
      "name": "UnreadUpdated",
      "type": "event"
    },
    {
      "anonymous": false,
      "inputs": [
        {
          "indexed": true,
          "internalType": "address",
          "name": "sender",
          "type": "address"
        },
        {
          "indexed": false,
          "internalType": "string",
          "name": "name",
          "type": "string"
        }
      ],
      "name": "UserCreated",
      "type": "event"
    },
    {
      "inputs": [
        {
          "internalType": "string",
          "name": "name",
          "type": "string"
        }
      ],
      "name": "createUser",
      "outputs": [],
      "stateMutability": "payable",
      "type": "function"
    },
    {
      "inputs": [
        {
          "internalType": "uint256",
          "name": "id",
          "type": "uint256"
        }
      ],
      "name": "deleteMessage",
      "outputs": [],
      "stateMutability": "nonpayable",
      "type": "function"
    },
    {
      "inputs": [
        {
          "internalType": "address",
          "name": "user",
          "type": "address"
        }
      ],
      "name": "disableUser",
      "outputs": [],
      "stateMutability": "nonpayable",
      "type": "function"
    },
    {
      "inputs": [],
      "name": "fee",
      "outputs": [
        {
          "internalType": "uint256",
          "name": "",
          "type": "uint256"
        }
      ],
      "stateMutability": "view",
      "type": "function"
    },
    {
      "inputs": [],
      "name": "getAllMessages",
      "outputs": [
        {
          "components": [
            {
              "components": [
                {
                  "internalType": "uint256",
                  "name": "id",
                  "type": "uint256"
                },
                {
                  "internalType": "string",
                  "name": "content",
                  "type": "string"
                },
                {
                  "internalType": "address",
                  "name": "sender",
                  "type": "address"
                },
                {
                  "internalType": "bool",
                  "name": "isDeleted",
                  "type": "bool"
                },
                {
                  "internalType": "uint256",
                  "name": "created",
                  "type": "uint256"
                }
              ],
              "internalType": "struct MessageModel",
              "name": "message",
              "type": "tuple"
            },
            {
              "components": [
                {
                  "internalType": "string",
                  "name": "name",
                  "type": "string"
                },
                {
                  "internalType": "address",
                  "name": "wallet",
                  "type": "address"
                },
                {
                  "internalType": "bool",
                  "name": "active",
                  "type": "bool"
                },
                {
                  "internalType": "uint256",
                  "name": "created",
                  "type": "uint256"
                }
              ],
              "internalType": "struct UserModel",
              "name": "user",
              "type": "tuple"
            }
          ],
          "internalType": "struct MessageUserModel[]",
          "name": "",
          "type": "tuple[]"
        }
      ],
      "stateMutability": "view",
      "type": "function"
    },
    {
      "inputs": [
        {
          "internalType": "address",
          "name": "wallet",
          "type": "address"
        }
      ],
      "name": "getUser",
      "outputs": [
        {
          "components": [
            {
              "internalType": "string",
              "name": "name",
              "type": "string"
            },
            {
              "internalType": "address",
              "name": "wallet",
              "type": "address"
            },
            {
              "internalType": "bool",
              "name": "active",
              "type": "bool"
            },
            {
              "internalType": "uint256",
              "name": "created",
              "type": "uint256"
            }
          ],
          "internalType": "struct UserModel",
          "name": "",
          "type": "tuple"
        }
      ],
      "stateMutability": "view",
      "type": "function"
    },
    {
      "inputs": [],
      "name": "getUserUnreadMessageCount",
      "outputs": [
        {
          "internalType": "uint256",
          "name": "",
          "type": "uint256"
        }
      ],
      "stateMutability": "view",
      "type": "function"
    },
    {
      "inputs": [],
      "name": "getUserUnreadMessages",
      "outputs": [
        {
          "components": [
            {
              "components": [
                {
                  "internalType": "uint256",
                  "name": "id",
                  "type": "uint256"
                },
                {
                  "internalType": "string",
                  "name": "content",
                  "type": "string"
                },
                {
                  "internalType": "address",
                  "name": "sender",
                  "type": "address"
                },
                {
                  "internalType": "bool",
                  "name": "isDeleted",
                  "type": "bool"
                },
                {
                  "internalType": "uint256",
                  "name": "created",
                  "type": "uint256"
                }
              ],
              "internalType": "struct MessageModel",
              "name": "message",
              "type": "tuple"
            },
            {
              "components": [
                {
                  "internalType": "string",
                  "name": "name",
                  "type": "string"
                },
                {
                  "internalType": "address",
                  "name": "wallet",
                  "type": "address"
                },
                {
                  "internalType": "bool",
                  "name": "active",
                  "type": "bool"
                },
                {
                  "internalType": "uint256",
                  "name": "created",
                  "type": "uint256"
                }
              ],
              "internalType": "struct UserModel",
              "name": "user",
              "type": "tuple"
            }
          ],
          "internalType": "struct MessageUserModel[]",
          "name": "",
          "type": "tuple[]"
        }
      ],
      "stateMutability": "view",
      "type": "function"
    },
    {
      "inputs": [
        {
          "internalType": "uint256",
          "name": "newFee",
          "type": "uint256"
        }
      ],
      "name": "setFee",
      "outputs": [],
      "stateMutability": "nonpayable",
      "type": "function"
    },
    {
      "inputs": [],
      "name": "totalActiveMessages",
      "outputs": [
        {
          "internalType": "uint256",
          "name": "",
          "type": "uint256"
        }
      ],
      "stateMutability": "view",
      "type": "function"
    },
    {
      "inputs": [],
      "name": "updateUserMessageAsReadAndEmit",
      "outputs": [],
      "stateMutability": "nonpayable",
      "type": "function"
    },
    {
      "inputs": [
        {
          "internalType": "string",
          "name": "name",
          "type": "string"
        }
      ],
      "name": "updateUserName",
      "outputs": [],
      "stateMutability": "payable",
      "type": "function"
    },
    {
      "inputs": [],
      "name": "withdrawBalance",
      "outputs": [],
      "stateMutability": "nonpayable",
      "type": "function"
    },
    {
      "inputs": [
        {
          "internalType": "string",
          "name": "content",
          "type": "string"
        }
      ],
      "name": "writeMessage",
      "outputs": [],
      "stateMutability": "nonpayable",
      "type": "function"
    }
  ],
  "bytecode": "0x6080604052662386f26fc1000060035534801561001b57600080fd5b50336000806101000a81548173ffffffffffffffffffffffffffffffffffffffff021916908373ffffffffffffffffffffffffffffffffffffffff1602179055506134738061006b6000396000f3fe6080604052600436106100dd5760003560e01c8063873783f51161007f578063b888690a11610059578063b888690a1461026c578063d009bed714610295578063ddca3f43146102ac578063ee6649a1146102d7576100dd565b8063873783f5146101fc578063af9036a114610227578063b588bfad14610243576100dd565b806354ca0597116100bb57806354ca0597146101545780635fd8c7101461017f57806369fe0e2d146101965780636f77926b146101bf576100dd565b80630f7cd5c6146100e2578063507ffba51461010d57806353f5e38014610129575b600080fd5b3480156100ee57600080fd5b506100f7610300565b60405161010491906127dd565b60405180910390f35b61012760048036038101906101229190612948565b6105da565b005b34801561013557600080fd5b5061013e610861565b60405161014b91906127dd565b60405180910390f35b34801561016057600080fd5b5061016961087b565b60405161017691906129a0565b60405180910390f35b34801561018b57600080fd5b50610194610b4a565b005b3480156101a257600080fd5b506101bd60048036038101906101b891906129e7565b610ce0565b005b3480156101cb57600080fd5b506101e660048036038101906101e19190612a40565b610d78565b6040516101f39190612ad0565b60405180910390f35b34801561020857600080fd5b50610211610f6f565b60405161021e91906129a0565b60405180910390f35b610241600480360381019061023c9190612948565b610f75565b005b34801561024f57600080fd5b5061026a60048036038101906102659190612948565b61128e565b005b34801561027857600080fd5b50610293600480360381019061028e91906129e7565b6116a7565b005b3480156102a157600080fd5b506102aa611b5d565b005b3480156102b857600080fd5b506102c1611e71565b6040516102ce91906129a0565b60405180910390f35b3480156102e357600080fd5b506102fe60048036038101906102f99190612a40565b611e77565b005b60606000600460003373ffffffffffffffffffffffffffffffffffffffff1673ffffffffffffffffffffffffffffffffffffffff16815260200190815260200160002060405180608001604052908160008201805461035e90612b21565b80601f016020809104026020016040519081016040528092919081815260200182805461038a90612b21565b80156103d75780601f106103ac576101008083540402835291602001916103d7565b820191906000526020600020905b8154815290600101906020018083116103ba57829003601f168201915b505050505081526020016001820160009054906101000a900473ffffffffffffffffffffffffffffffffffffffff1673ffffffffffffffffffffffffffffffffffffffff1673ffffffffffffffffffffffffffffffffffffffff1681526020016001820160149054906101000a900460ff1615151515815260200160028201548152505090506000600460003373ffffffffffffffffffffffffffffffffffffffff1673ffffffffffffffffffffffffffffffffffffffff16815260200190815260200160002060000180546104ac90612b21565b9050036104ee576040517f08c379a00000000000000000000000000000000000000000000000000000000081526004016104e590612baf565b60405180910390fd5b600460003373ffffffffffffffffffffffffffffffffffffffff1673ffffffffffffffffffffffffffffffffffffffff16815260200190815260200160002060010160149054906101000a900460ff1661057d576040517f08c379a000000000000000000000000000000000000000000000000000000000815260040161057490612c1b565b60405180910390fd5b6000600660003373ffffffffffffffffffffffffffffffffffffffff1673ffffffffffffffffffffffffffffffffffffffff16815260200190815260200160002054905060006105cf82600254612043565b905080935050505090565b600081511161061e576040517f08c379a000000000000000000000000000000000000000000000000000000000815260040161061590612c87565b60405180910390fd5b6000600460003373ffffffffffffffffffffffffffffffffffffffff1673ffffffffffffffffffffffffffffffffffffffff168152602001908152602001600020600001805461066d90612b21565b9050146106af576040517f08c379a00000000000000000000000000000000000000000000000000000000081526004016106a690612cf3565b60405180910390fd5b6003543410156106f4576040517f08c379a00000000000000000000000000000000000000000000000000000000081526004016106eb90612d5f565b60405180910390fd5b60405180608001604052808281526020013373ffffffffffffffffffffffffffffffffffffffff16815260200160011515815260200142815250600460003373ffffffffffffffffffffffffffffffffffffffff1673ffffffffffffffffffffffffffffffffffffffff16815260200190815260200160002060008201518160000190816107829190612f2b565b5060208201518160010160006101000a81548173ffffffffffffffffffffffffffffffffffffffff021916908373ffffffffffffffffffffffffffffffffffffffff16021790555060408201518160010160146101000a81548160ff021916908315150217905550606082015181600201559050503373ffffffffffffffffffffffffffffffffffffffff167f9954bce02f72fbdef0fa668ac6f42e434b5829615dac2fb22448054d2359d4f68260405161083d9190613036565b60405180910390a234600160008282546108579190613087565b9250508190555050565b606060006108726000600254612043565b90508091505090565b600080600460003373ffffffffffffffffffffffffffffffffffffffff1673ffffffffffffffffffffffffffffffffffffffff1681526020019081526020016000206040518060800160405290816000820180546108d890612b21565b80601f016020809104026020016040519081016040528092919081815260200182805461090490612b21565b80156109515780601f1061092657610100808354040283529160200191610951565b820191906000526020600020905b81548152906001019060200180831161093457829003601f168201915b505050505081526020016001820160009054906101000a900473ffffffffffffffffffffffffffffffffffffffff1673ffffffffffffffffffffffffffffffffffffffff1673ffffffffffffffffffffffffffffffffffffffff1681526020016001820160149054906101000a900460ff1615151515815260200160028201548152505090506000600460003373ffffffffffffffffffffffffffffffffffffffff1673ffffffffffffffffffffffffffffffffffffffff1681526020019081526020016000206000018054610a2690612b21565b905003610a68576040517f08c379a0000000000000000000000000000000000000000000000000000000008152600401610a5f90612baf565b60405180910390fd5b600460003373ffffffffffffffffffffffffffffffffffffffff1673ffffffffffffffffffffffffffffffffffffffff16815260200190815260200160002060010160149054906101000a900460ff16610af7576040517f08c379a0000000000000000000000000000000000000000000000000000000008152600401610aee90612c1b565b60405180910390fd5b600660003373ffffffffffffffffffffffffffffffffffffffff1673ffffffffffffffffffffffffffffffffffffffff16815260200190815260200160002054600254610b4491906130bb565b91505090565b60008054906101000a900473ffffffffffffffffffffffffffffffffffffffff1673ffffffffffffffffffffffffffffffffffffffff163373ffffffffffffffffffffffffffffffffffffffff1614610bd8576040517f08c379a0000000000000000000000000000000000000000000000000000000008152600401610bcf90612baf565b60405180910390fd5b600060015411610c1d576040517f08c379a0000000000000000000000000000000000000000000000000000000008152600401610c149061313b565b60405180910390fd5b3373ffffffffffffffffffffffffffffffffffffffff166108fc6001549081150290604051600060405180830381858888f19350505050158015610c65573d6000803e3d6000fd5b5060008054906101000a900473ffffffffffffffffffffffffffffffffffffffff1673ffffffffffffffffffffffffffffffffffffffff167fddc398b321237a8d40ac914388309c2f52a08c134e4dc4ce61e32f57cb7d80f1600154604051610cce91906129a0565b60405180910390a26000600181905550565b60008054906101000a900473ffffffffffffffffffffffffffffffffffffffff1673ffffffffffffffffffffffffffffffffffffffff163373ffffffffffffffffffffffffffffffffffffffff1614610d6e576040517f08c379a0000000000000000000000000000000000000000000000000000000008152600401610d6590612baf565b60405180910390fd5b8060038190555050565b610d8061244c565b6000600460008473ffffffffffffffffffffffffffffffffffffffff1673ffffffffffffffffffffffffffffffffffffffff1681526020019081526020016000206000018054610dcf90612b21565b905003610e11576040517f08c379a0000000000000000000000000000000000000000000000000000000008152600401610e08906131a7565b60405180910390fd5b600460008373ffffffffffffffffffffffffffffffffffffffff1673ffffffffffffffffffffffffffffffffffffffff168152602001908152602001600020604051806080016040529081600082018054610e6b90612b21565b80601f0160208091040260200160405190810160405280929190818152602001828054610e9790612b21565b8015610ee45780601f10610eb957610100808354040283529160200191610ee4565b820191906000526020600020905b815481529060010190602001808311610ec757829003601f168201915b505050505081526020016001820160009054906101000a900473ffffffffffffffffffffffffffffffffffffffff1673ffffffffffffffffffffffffffffffffffffffff1673ffffffffffffffffffffffffffffffffffffffff1681526020016001820160149054906101000a900460ff161515151581526020016002820154815250509050919050565b60025481565b6000600460003373ffffffffffffffffffffffffffffffffffffffff1673ffffffffffffffffffffffffffffffffffffffff168152602001908152602001600020604051806080016040529081600082018054610fd190612b21565b80601f0160208091040260200160405190810160405280929190818152602001828054610ffd90612b21565b801561104a5780601f1061101f5761010080835404028352916020019161104a565b820191906000526020600020905b81548152906001019060200180831161102d57829003601f168201915b505050505081526020016001820160009054906101000a900473ffffffffffffffffffffffffffffffffffffffff1673ffffffffffffffffffffffffffffffffffffffff1673ffffffffffffffffffffffffffffffffffffffff1681526020016001820160149054906101000a900460ff1615151515815260200160028201548152505090506000600460003373ffffffffffffffffffffffffffffffffffffffff1673ffffffffffffffffffffffffffffffffffffffff168152602001908152602001600020600001805461111f90612b21565b905003611161576040517f08c379a000000000000000000000000000000000000000000000000000000000815260040161115890612baf565b60405180910390fd5b600460003373ffffffffffffffffffffffffffffffffffffffff1673ffffffffffffffffffffffffffffffffffffffff16815260200190815260200160002060010160149054906101000a900460ff166111f0576040517f08c379a00000000000000000000000000000000000000000000000000000000081526004016111e790612c1b565b60405180910390fd5b66038d7ea4c6800034101561123a576040517f08c379a000000000000000000000000000000000000000000000000000000000815260040161123190612d5f565b60405180910390fd5b81600460003373ffffffffffffffffffffffffffffffffffffffff1673ffffffffffffffffffffffffffffffffffffffff16815260200190815260200160002060000190816112899190612f2b565b505050565b6000600460003373ffffffffffffffffffffffffffffffffffffffff1673ffffffffffffffffffffffffffffffffffffffff1681526020019081526020016000206040518060800160405290816000820180546112ea90612b21565b80601f016020809104026020016040519081016040528092919081815260200182805461131690612b21565b80156113635780601f1061133857610100808354040283529160200191611363565b820191906000526020600020905b81548152906001019060200180831161134657829003601f168201915b505050505081526020016001820160009054906101000a900473ffffffffffffffffffffffffffffffffffffffff1673ffffffffffffffffffffffffffffffffffffffff1673ffffffffffffffffffffffffffffffffffffffff1681526020016001820160149054906101000a900460ff1615151515815260200160028201548152505090506000600460003373ffffffffffffffffffffffffffffffffffffffff1673ffffffffffffffffffffffffffffffffffffffff168152602001908152602001600020600001805461143890612b21565b90500361147a576040517f08c379a000000000000000000000000000000000000000000000000000000000815260040161147190612baf565b60405180910390fd5b600460003373ffffffffffffffffffffffffffffffffffffffff1673ffffffffffffffffffffffffffffffffffffffff16815260200190815260200160002060010160149054906101000a900460ff16611509576040517f08c379a000000000000000000000000000000000000000000000000000000000815260040161150090612c1b565b60405180910390fd5b61012c8251111561154f576040517f08c379a000000000000000000000000000000000000000000000000000000000815260040161154690613239565b60405180910390fd5b6040518060a0016040528060025481526020018381526020013373ffffffffffffffffffffffffffffffffffffffff168152602001600015158152602001428152506005600060025481526020019081526020016000206000820151816000015560208201518160010190816115c59190612f2b565b5060408201518160020160006101000a81548173ffffffffffffffffffffffffffffffffffffffff021916908373ffffffffffffffffffffffffffffffffffffffff16021790555060608201518160020160146101000a81548160ff021916908315150217905550608082015181600301559050503373ffffffffffffffffffffffffffffffffffffffff166002547fc4ae556642cbe7e693d6cce227775ac9ab2298e3032f588ccb496b83110d0e88846040516116839190613036565b60405180910390a36002600081548092919061169e90613259565b91905055505050565b6000600460003373ffffffffffffffffffffffffffffffffffffffff1673ffffffffffffffffffffffffffffffffffffffff16815260200190815260200160002060405180608001604052908160008201805461170390612b21565b80601f016020809104026020016040519081016040528092919081815260200182805461172f90612b21565b801561177c5780601f106117515761010080835404028352916020019161177c565b820191906000526020600020905b81548152906001019060200180831161175f57829003601f168201915b505050505081526020016001820160009054906101000a900473ffffffffffffffffffffffffffffffffffffffff1673ffffffffffffffffffffffffffffffffffffffff1673ffffffffffffffffffffffffffffffffffffffff1681526020016001820160149054906101000a900460ff1615151515815260200160028201548152505090506000600460003373ffffffffffffffffffffffffffffffffffffffff1673ffffffffffffffffffffffffffffffffffffffff168152602001908152602001600020600001805461185190612b21565b905003611893576040517f08c379a000000000000000000000000000000000000000000000000000000000815260040161188a90612baf565b60405180910390fd5b600460003373ffffffffffffffffffffffffffffffffffffffff1673ffffffffffffffffffffffffffffffffffffffff16815260200190815260200160002060010160149054906101000a900460ff16611922576040517f08c379a000000000000000000000000000000000000000000000000000000000815260040161191990612c1b565b60405180910390fd5b600060056000848152602001908152602001600020600101805461194590612b21565b905003611987576040517f08c379a000000000000000000000000000000000000000000000000000000000815260040161197e906132ed565b60405180910390fd5b3373ffffffffffffffffffffffffffffffffffffffff166005600084815260200190815260200160002060020160009054906101000a900473ffffffffffffffffffffffffffffffffffffffff1673ffffffffffffffffffffffffffffffffffffffff161480611a42575060008054906101000a900473ffffffffffffffffffffffffffffffffffffffff1673ffffffffffffffffffffffffffffffffffffffff163373ffffffffffffffffffffffffffffffffffffffff16145b611a81576040517f08c379a0000000000000000000000000000000000000000000000000000000008152600401611a7890612baf565b60405180910390fd5b6005600083815260200190815260200160002060020160149054906101000a900460ff1615611ae5576040517f08c379a0000000000000000000000000000000000000000000000000000000008152600401611adc90613359565b60405180910390fd5b60016005600084815260200190815260200160002060020160146101000a81548160ff02191690831515021790555060026000815480929190611b2790613379565b9190505550817f6279be045e4d4d5a0eba7b1f0e578322b6dd7c01e92f0991700a02180904654b60405160405180910390a25050565b6000600460003373ffffffffffffffffffffffffffffffffffffffff1673ffffffffffffffffffffffffffffffffffffffff168152602001908152602001600020604051806080016040529081600082018054611bb990612b21565b80601f0160208091040260200160405190810160405280929190818152602001828054611be590612b21565b8015611c325780601f10611c0757610100808354040283529160200191611c32565b820191906000526020600020905b815481529060010190602001808311611c1557829003601f168201915b505050505081526020016001820160009054906101000a900473ffffffffffffffffffffffffffffffffffffffff1673ffffffffffffffffffffffffffffffffffffffff1673ffffffffffffffffffffffffffffffffffffffff1681526020016001820160149054906101000a900460ff1615151515815260200160028201548152505090506000600460003373ffffffffffffffffffffffffffffffffffffffff1673ffffffffffffffffffffffffffffffffffffffff1681526020019081526020016000206000018054611d0790612b21565b905003611d49576040517f08c379a0000000000000000000000000000000000000000000000000000000008152600401611d4090612baf565b60405180910390fd5b600460003373ffffffffffffffffffffffffffffffffffffffff1673ffffffffffffffffffffffffffffffffffffffff16815260200190815260200160002060010160149054906101000a900460ff16611dd8576040517f08c379a0000000000000000000000000000000000000000000000000000000008152600401611dcf90612c1b565b60405180910390fd5b6000600660003373ffffffffffffffffffffffffffffffffffffffff1673ffffffffffffffffffffffffffffffffffffffff1681526020019081526020016000205490506000611e2a82600254612043565b9050611e3533612403565b7f8cbf4db0f341d403a3fda139f00bf50cf4b7c938bdbadbf8690edaaa34a9148681604051611e6491906127dd565b60405180910390a1505050565b60035481565b60008054906101000a900473ffffffffffffffffffffffffffffffffffffffff1673ffffffffffffffffffffffffffffffffffffffff163373ffffffffffffffffffffffffffffffffffffffff1614611f05576040517f08c379a0000000000000000000000000000000000000000000000000000000008152600401611efc90612baf565b60405180910390fd5b6000600460008373ffffffffffffffffffffffffffffffffffffffff1673ffffffffffffffffffffffffffffffffffffffff1681526020019081526020016000206000018054611f5490612b21565b905003611f96576040517f08c379a0000000000000000000000000000000000000000000000000000000008152600401611f8d906133ee565b60405180910390fd5b600460008273ffffffffffffffffffffffffffffffffffffffff1673ffffffffffffffffffffffffffffffffffffffff16815260200190815260200160002060010160149054906101000a900460ff1615600460008373ffffffffffffffffffffffffffffffffffffffff1673ffffffffffffffffffffffffffffffffffffffff16815260200190815260200160002060010160146101000a81548160ff02191690831515021790555050565b60606000838361205391906130bb565b67ffffffffffffffff81111561206c5761206b61281d565b5b6040519080825280602002602001820160405280156120a557816020015b61209261248c565b81526020019060019003908161208a5790505b50905060008490505b838110156123f8576005600082815260200190815260200160002060020160149054906101000a900460ff166123e557600460006005600084815260200190815260200160002060020160009054906101000a900473ffffffffffffffffffffffffffffffffffffffff1673ffffffffffffffffffffffffffffffffffffffff1673ffffffffffffffffffffffffffffffffffffffff16815260200190815260200160002060405180608001604052908160008201805461216e90612b21565b80601f016020809104026020016040519081016040528092919081815260200182805461219a90612b21565b80156121e75780601f106121bc576101008083540402835291602001916121e7565b820191906000526020600020905b8154815290600101906020018083116121ca57829003601f168201915b505050505081526020016001820160009054906101000a900473ffffffffffffffffffffffffffffffffffffffff1673ffffffffffffffffffffffffffffffffffffffff1673ffffffffffffffffffffffffffffffffffffffff1681526020016001820160149054906101000a900460ff1615151515815260200160028201548152505082828151811061227e5761227d61340e565b5b602002602001015160200181905250600560008281526020019081526020016000206040518060a0016040529081600082015481526020016001820180546122c590612b21565b80601f01602080910402602001604051908101604052809291908181526020018280546122f190612b21565b801561233e5780601f106123135761010080835404028352916020019161233e565b820191906000526020600020905b81548152906001019060200180831161232157829003601f168201915b505050505081526020016002820160009054906101000a900473ffffffffffffffffffffffffffffffffffffffff1673ffffffffffffffffffffffffffffffffffffffff1673ffffffffffffffffffffffffffffffffffffffff1681526020016002820160149054906101000a900460ff161515151581526020016003820154815250508282815181106123d5576123d461340e565b5b6020026020010151600001819052505b80806123f090613259565b9150506120ae565b508091505092915050565b600254600660008373ffffffffffffffffffffffffffffffffffffffff1673ffffffffffffffffffffffffffffffffffffffff1681526020019081526020016000208190555050565b604051806080016040528060608152602001600073ffffffffffffffffffffffffffffffffffffffff168152602001600015158152602001600081525090565b604051806040016040528061249f6124b2565b81526020016124ac61244c565b81525090565b6040518060a001604052806000815260200160608152602001600073ffffffffffffffffffffffffffffffffffffffff168152602001600015158152602001600081525090565b600081519050919050565b600082825260208201905092915050565b6000819050602082019050919050565b6000819050919050565b61253881612525565b82525050565b600081519050919050565b600082825260208201905092915050565b60005b8381101561257857808201518184015260208101905061255d565b60008484015250505050565b6000601f19601f8301169050919050565b60006125a08261253e565b6125aa8185612549565b93506125ba81856020860161255a565b6125c381612584565b840191505092915050565b600073ffffffffffffffffffffffffffffffffffffffff82169050919050565b60006125f9826125ce565b9050919050565b612609816125ee565b82525050565b60008115159050919050565b6126248161260f565b82525050565b600060a083016000830151612642600086018261252f565b506020830151848203602086015261265a8282612595565b915050604083015161266f6040860182612600565b506060830151612682606086018261261b565b506080830151612695608086018261252f565b508091505092915050565b600060808301600083015184820360008601526126bd8282612595565b91505060208301516126d26020860182612600565b5060408301516126e5604086018261261b565b5060608301516126f8606086018261252f565b508091505092915050565b60006040830160008301518482036000860152612720828261262a565b9150506020830151848203602086015261273a82826126a0565b9150508091505092915050565b60006127538383612703565b905092915050565b6000602082019050919050565b6000612773826124f9565b61277d8185612504565b93508360208202850161278f85612515565b8060005b858110156127cb57848403895281516127ac8582612747565b94506127b78361275b565b925060208a01995050600181019050612793565b50829750879550505050505092915050565b600060208201905081810360008301526127f78184612768565b905092915050565b6000604051905090565b600080fd5b600080fd5b600080fd5b600080fd5b7f4e487b7100000000000000000000000000000000000000000000000000000000600052604160045260246000fd5b61285582612584565b810181811067ffffffffffffffff821117156128745761287361281d565b5b80604052505050565b60006128876127ff565b9050612893828261284c565b919050565b600067ffffffffffffffff8211156128b3576128b261281d565b5b6128bc82612584565b9050602081019050919050565b82818337600083830152505050565b60006128eb6128e684612898565b61287d565b90508281526020810184848401111561290757612906612818565b5b6129128482856128c9565b509392505050565b600082601f83011261292f5761292e612813565b5b813561293f8482602086016128d8565b91505092915050565b60006020828403121561295e5761295d612809565b5b600082013567ffffffffffffffff81111561297c5761297b61280e565b5b6129888482850161291a565b91505092915050565b61299a81612525565b82525050565b60006020820190506129b56000830184612991565b92915050565b6129c481612525565b81146129cf57600080fd5b50565b6000813590506129e1816129bb565b92915050565b6000602082840312156129fd576129fc612809565b5b6000612a0b848285016129d2565b91505092915050565b612a1d816125ee565b8114612a2857600080fd5b50565b600081359050612a3a81612a14565b92915050565b600060208284031215612a5657612a55612809565b5b6000612a6484828501612a2b565b91505092915050565b60006080830160008301518482036000860152612a8a8282612595565b9150506020830151612a9f6020860182612600565b506040830151612ab2604086018261261b565b506060830151612ac5606086018261252f565b508091505092915050565b60006020820190508181036000830152612aea8184612a6d565b905092915050565b7f4e487b7100000000000000000000000000000000000000000000000000000000600052602260045260246000fd5b60006002820490506001821680612b3957607f821691505b602082108103612b4c57612b4b612af2565b5b50919050565b600082825260208201905092915050565b7f53656e646572206973206e6f7420617574686f72697a65640000000000000000600082015250565b6000612b99601883612b52565b9150612ba482612b63565b602082019050919050565b60006020820190508181036000830152612bc881612b8c565b9050919050565b7f5573657220696e61637469766500000000000000000000000000000000000000600082015250565b6000612c05600d83612b52565b9150612c1082612bcf565b602082019050919050565b60006020820190508181036000830152612c3481612bf8565b9050919050565b7f4e69636b6e616d65206d757374206e6f7420626520656d707479000000000000600082015250565b6000612c71601a83612b52565b9150612c7c82612c3b565b602082019050919050565b60006020820190508181036000830152612ca081612c64565b9050919050565b7f5573657220616c72656164792065786973747300000000000000000000000000600082015250565b6000612cdd601383612b52565b9150612ce882612ca7565b602082019050919050565b60006020820190508181036000830152612d0c81612cd0565b9050919050565b7f496e73756666696369656e742076616c75650000000000000000000000000000600082015250565b6000612d49601283612b52565b9150612d5482612d13565b602082019050919050565b60006020820190508181036000830152612d7881612d3c565b9050919050565b60008190508160005260206000209050919050565b60006020601f8301049050919050565b600082821b905092915050565b600060088302612de17fffffffffffffffffffffffffffffffffffffffffffffffffffffffffffffffff82612da4565b612deb8683612da4565b95508019841693508086168417925050509392505050565b6000819050919050565b6000612e28612e23612e1e84612525565b612e03565b612525565b9050919050565b6000819050919050565b612e4283612e0d565b612e56612e4e82612e2f565b848454612db1565b825550505050565b600090565b612e6b612e5e565b612e76818484612e39565b505050565b5b81811015612e9a57612e8f600082612e63565b600181019050612e7c565b5050565b601f821115612edf57612eb081612d7f565b612eb984612d94565b81016020851015612ec8578190505b612edc612ed485612d94565b830182612e7b565b50505b505050565b600082821c905092915050565b6000612f0260001984600802612ee4565b1980831691505092915050565b6000612f1b8383612ef1565b9150826002028217905092915050565b612f348261253e565b67ffffffffffffffff811115612f4d57612f4c61281d565b5b612f578254612b21565b612f62828285612e9e565b600060209050601f831160018114612f955760008415612f83578287015190505b612f8d8582612f0f565b865550612ff5565b601f198416612fa386612d7f565b60005b82811015612fcb57848901518255600182019150602085019450602081019050612fa6565b86831015612fe85784890151612fe4601f891682612ef1565b8355505b6001600288020188555050505b505050505050565b60006130088261253e565b6130128185612b52565b935061302281856020860161255a565b61302b81612584565b840191505092915050565b600060208201905081810360008301526130508184612ffd565b905092915050565b7f4e487b7100000000000000000000000000000000000000000000000000000000600052601160045260246000fd5b600061309282612525565b915061309d83612525565b92508282019050808211156130b5576130b4613058565b5b92915050565b60006130c682612525565b91506130d183612525565b92508282039050818111156130e9576130e8613058565b5b92915050565b7f4e6f2062616c616e636520617661696c61626c6520746f207769746864726177600082015250565b6000613125602083612b52565b9150613130826130ef565b602082019050919050565b6000602082019050818103600083015261315481613118565b9050919050565b7f55736572204e6f74204578697374000000000000000000000000000000000000600082015250565b6000613191600e83612b52565b915061319c8261315b565b602082019050919050565b600060208201905081810360008301526131c081613184565b9050919050565b7f546865206d65737361676520657863656564732033303020636861726163746560008201527f7273000000000000000000000000000000000000000000000000000000000000602082015250565b6000613223602283612b52565b915061322e826131c7565b604082019050919050565b6000602082019050818103600083015261325281613216565b9050919050565b600061326482612525565b91507fffffffffffffffffffffffffffffffffffffffffffffffffffffffffffffffff820361329657613295613058565b5b600182019050919050565b7f4d657373616765206e6f7420666f756e642e0000000000000000000000000000600082015250565b60006132d7601283612b52565b91506132e2826132a1565b602082019050919050565b60006020820190508181036000830152613306816132ca565b9050919050565b7f4d6573736167652069732064656c657465640000000000000000000000000000600082015250565b6000613343601283612b52565b915061334e8261330d565b602082019050919050565b6000602082019050818103600083015261337281613336565b9050919050565b600061338482612525565b91506000820361339757613396613058565b5b600182039050919050565b7f55736572206e6f7420666f756e642e0000000000000000000000000000000000600082015250565b60006133d8600f83612b52565b91506133e3826133a2565b602082019050919050565b60006020820190508181036000830152613407816133cb565b9050919050565b7f4e487b7100000000000000000000000000000000000000000000000000000000600052603260045260246000fdfea264697066735822122044dab91aa241b691ec1627e2a3a55310ee39374e2510fdbbae845dead8fde98564736f6c63430008110033",
  "linkReferences": {},
  "deployedLinkReferences": {}
}