{
  "_format": "hh-sol-artifact-1",
  "contractName": "PublicMessaging",
  "sourceName": "contracts/PublicMessaging.sol",
  "abi": [
    {
      "inputs": [
        {
          "internalType": "address",
          "name": "counterAddress",
          "type": "address"
        }
      ],
      "stateMutability": "nonpayable",
      "type": "constructor"
    },
    {
      "anonymous": false,
      "inputs": [
        {
          "indexed": true,
          "internalType": "address",
          "name": "recipient",
          "type": "address"
        },
        {
          "indexed": false,
          "internalType": "uint256",
          "name": "amount",
          "type": "uint256"
        }
      ],
      "name": "BalanceWithdrawn",
      "type": "event"
    },
    {
      "anonymous": false,
      "inputs": [
        {
          "indexed": true,
          "internalType": "uint256",
          "name": "id",
          "type": "uint256"
        }
      ],
      "name": "MessageDeleted",
      "type": "event"
    },
    {
      "anonymous": false,
      "inputs": [
        {
          "indexed": true,
          "internalType": "uint256",
          "name": "id",
          "type": "uint256"
        },
        {
          "indexed": false,
          "internalType": "string",
          "name": "content",
          "type": "string"
        },
        {
          "indexed": true,
          "internalType": "address",
          "name": "sender",
          "type": "address"
        }
      ],
      "name": "MessageSent",
      "type": "event"
    },
    {
      "anonymous": false,
      "inputs": [
        {
          "components": [
            {
              "components": [
                {
                  "internalType": "uint256",
                  "name": "id",
                  "type": "uint256"
                },
                {
                  "internalType": "string",
                  "name": "content",
                  "type": "string"
                },
                {
                  "internalType": "address",
                  "name": "sender",
                  "type": "address"
                },
                {
                  "internalType": "bool",
                  "name": "isDeleted",
                  "type": "bool"
                },
                {
                  "internalType": "uint256",
                  "name": "created",
                  "type": "uint256"
                }
              ],
              "internalType": "struct MessageModel",
              "name": "message",
              "type": "tuple"
            },
            {
              "components": [
                {
                  "internalType": "string",
                  "name": "name",
                  "type": "string"
                },
                {
                  "internalType": "address",
                  "name": "wallet",
                  "type": "address"
                },
                {
                  "internalType": "bool",
                  "name": "active",
                  "type": "bool"
                },
                {
                  "internalType": "uint256",
                  "name": "created",
                  "type": "uint256"
                }
              ],
              "internalType": "struct UserModel",
              "name": "user",
              "type": "tuple"
            }
          ],
          "indexed": false,
          "internalType": "struct MessageUserModel[]",
          "name": "",
          "type": "tuple[]"
        }
      ],
      "name": "UnreadUpdated",
      "type": "event"
    },
    {
      "anonymous": false,
      "inputs": [
        {
          "indexed": true,
          "internalType": "address",
          "name": "sender",
          "type": "address"
        },
        {
          "indexed": false,
          "internalType": "string",
          "name": "name",
          "type": "string"
        }
      ],
      "name": "UserCreated",
      "type": "event"
    },
    {
      "inputs": [],
      "name": "counter",
      "outputs": [
        {
          "internalType": "contract MessageCounter",
          "name": "",
          "type": "address"
        }
      ],
      "stateMutability": "view",
      "type": "function"
    },
    {
      "inputs": [
        {
          "internalType": "string",
          "name": "name",
          "type": "string"
        }
      ],
      "name": "createUser",
      "outputs": [],
      "stateMutability": "payable",
      "type": "function"
    },
    {
      "inputs": [
        {
          "internalType": "uint256",
          "name": "id",
          "type": "uint256"
        }
      ],
      "name": "deleteMessage",
      "outputs": [],
      "stateMutability": "nonpayable",
      "type": "function"
    },
    {
      "inputs": [
        {
          "internalType": "address",
          "name": "user",
          "type": "address"
        }
      ],
      "name": "disableUser",
      "outputs": [],
      "stateMutability": "nonpayable",
      "type": "function"
    },
    {
      "inputs": [],
      "name": "fee",
      "outputs": [
        {
          "internalType": "uint256",
          "name": "",
          "type": "uint256"
        }
      ],
      "stateMutability": "view",
      "type": "function"
    },
    {
      "inputs": [],
      "name": "getAllMessages",
      "outputs": [
        {
          "components": [
            {
              "components": [
                {
                  "internalType": "uint256",
                  "name": "id",
                  "type": "uint256"
                },
                {
                  "internalType": "string",
                  "name": "content",
                  "type": "string"
                },
                {
                  "internalType": "address",
                  "name": "sender",
                  "type": "address"
                },
                {
                  "internalType": "bool",
                  "name": "isDeleted",
                  "type": "bool"
                },
                {
                  "internalType": "uint256",
                  "name": "created",
                  "type": "uint256"
                }
              ],
              "internalType": "struct MessageModel",
              "name": "message",
              "type": "tuple"
            },
            {
              "components": [
                {
                  "internalType": "string",
                  "name": "name",
                  "type": "string"
                },
                {
                  "internalType": "address",
                  "name": "wallet",
                  "type": "address"
                },
                {
                  "internalType": "bool",
                  "name": "active",
                  "type": "bool"
                },
                {
                  "internalType": "uint256",
                  "name": "created",
                  "type": "uint256"
                }
              ],
              "internalType": "struct UserModel",
              "name": "user",
              "type": "tuple"
            }
          ],
          "internalType": "struct MessageUserModel[]",
          "name": "",
          "type": "tuple[]"
        }
      ],
      "stateMutability": "view",
      "type": "function"
    },
    {
      "inputs": [],
      "name": "getTotalActiveMessages",
      "outputs": [
        {
          "internalType": "uint256",
          "name": "",
          "type": "uint256"
        }
      ],
      "stateMutability": "view",
      "type": "function"
    },
    {
      "inputs": [
        {
          "internalType": "address",
          "name": "wallet",
          "type": "address"
        }
      ],
      "name": "getUser",
      "outputs": [
        {
          "components": [
            {
              "internalType": "string",
              "name": "name",
              "type": "string"
            },
            {
              "internalType": "address",
              "name": "wallet",
              "type": "address"
            },
            {
              "internalType": "bool",
              "name": "active",
              "type": "bool"
            },
            {
              "internalType": "uint256",
              "name": "created",
              "type": "uint256"
            }
          ],
          "internalType": "struct UserModel",
          "name": "",
          "type": "tuple"
        }
      ],
      "stateMutability": "view",
      "type": "function"
    },
    {
      "inputs": [],
      "name": "getUserUnreadMessageCount",
      "outputs": [
        {
          "internalType": "uint256",
          "name": "",
          "type": "uint256"
        }
      ],
      "stateMutability": "view",
      "type": "function"
    },
    {
      "inputs": [],
      "name": "getUserUnreadMessages",
      "outputs": [
        {
          "components": [
            {
              "components": [
                {
                  "internalType": "uint256",
                  "name": "id",
                  "type": "uint256"
                },
                {
                  "internalType": "string",
                  "name": "content",
                  "type": "string"
                },
                {
                  "internalType": "address",
                  "name": "sender",
                  "type": "address"
                },
                {
                  "internalType": "bool",
                  "name": "isDeleted",
                  "type": "bool"
                },
                {
                  "internalType": "uint256",
                  "name": "created",
                  "type": "uint256"
                }
              ],
              "internalType": "struct MessageModel",
              "name": "message",
              "type": "tuple"
            },
            {
              "components": [
                {
                  "internalType": "string",
                  "name": "name",
                  "type": "string"
                },
                {
                  "internalType": "address",
                  "name": "wallet",
                  "type": "address"
                },
                {
                  "internalType": "bool",
                  "name": "active",
                  "type": "bool"
                },
                {
                  "internalType": "uint256",
                  "name": "created",
                  "type": "uint256"
                }
              ],
              "internalType": "struct UserModel",
              "name": "user",
              "type": "tuple"
            }
          ],
          "internalType": "struct MessageUserModel[]",
          "name": "",
          "type": "tuple[]"
        }
      ],
      "stateMutability": "view",
      "type": "function"
    },
    {
      "inputs": [
        {
          "internalType": "uint256",
          "name": "newFee",
          "type": "uint256"
        }
      ],
      "name": "setFee",
      "outputs": [],
      "stateMutability": "nonpayable",
      "type": "function"
    },
    {
      "inputs": [],
      "name": "updateUserMessageAsReadAndEmit",
      "outputs": [],
      "stateMutability": "nonpayable",
      "type": "function"
    },
    {
      "inputs": [
        {
          "internalType": "string",
          "name": "name",
          "type": "string"
        }
      ],
      "name": "updateUserName",
      "outputs": [],
      "stateMutability": "payable",
      "type": "function"
    },
    {
      "inputs": [],
      "name": "withdrawBalance",
      "outputs": [],
      "stateMutability": "nonpayable",
      "type": "function"
    },
    {
      "inputs": [
        {
          "internalType": "string",
          "name": "content",
          "type": "string"
        }
      ],
      "name": "writeMessage",
      "outputs": [],
      "stateMutability": "nonpayable",
      "type": "function"
    }
  ],
  "bytecode": "0x6080604052662386f26fc100006003553480156200001c57600080fd5b5060405162003d2638038062003d26833981810160405281019062000042919062000134565b336000806101000a81548173ffffffffffffffffffffffffffffffffffffffff021916908373ffffffffffffffffffffffffffffffffffffffff16021790555080600260006101000a81548173ffffffffffffffffffffffffffffffffffffffff021916908373ffffffffffffffffffffffffffffffffffffffff1602179055505062000166565b600080fd5b600073ffffffffffffffffffffffffffffffffffffffff82169050919050565b6000620000fc82620000cf565b9050919050565b6200010e81620000ef565b81146200011a57600080fd5b50565b6000815190506200012e8162000103565b92915050565b6000602082840312156200014d576200014c620000ca565b5b60006200015d848285016200011d565b91505092915050565b613bb080620001766000396000f3fe6080604052600436106100e85760003560e01c80636f77926b1161008a578063c982923f11610059578063c982923f146102a0578063d009bed7146102cb578063ddca3f43146102e2578063ee6649a11461030d576100e8565b80636f77926b146101f5578063af9036a114610232578063b588bfad1461024e578063b888690a14610277576100e8565b806354ca0597116100c657806354ca05971461015f5780635fd8c7101461018a57806361bc221a146101a157806369fe0e2d146101cc576100e8565b80630f7cd5c6146100ed578063507ffba51461011857806353f5e38014610134575b600080fd5b3480156100f957600080fd5b50610102610336565b60405161010f9190612e91565b60405180910390f35b610132600480360381019061012d9190612ffc565b61069e565b005b34801561014057600080fd5b50610149610925565b6040516101569190612e91565b60405180910390f35b34801561016b57600080fd5b506101746109cd565b6040516101819190613054565b60405180910390f35b34801561019657600080fd5b5061019f610d2a565b005b3480156101ad57600080fd5b506101b6610ec0565b6040516101c391906130ce565b60405180910390f35b3480156101d857600080fd5b506101f360048036038101906101ee9190613115565b610ee6565b005b34801561020157600080fd5b5061021c6004803603810190610217919061316e565b610f7e565b60405161022991906131fe565b60405180910390f35b61024c60048036038101906102479190612ffc565b611175565b005b34801561025a57600080fd5b5061027560048036038101906102709190612ffc565b61148e565b005b34801561028357600080fd5b5061029e60048036038101906102999190613115565b611b3d565b005b3480156102ac57600080fd5b506102b561205d565b6040516102c29190613054565b60405180910390f35b3480156102d757600080fd5b506102e06120f5565b005b3480156102ee57600080fd5b506102f7612497565b6040516103049190613054565b60405180910390f35b34801561031957600080fd5b50610334600480360381019061032f919061316e565b61249d565b005b60606000600460003373ffffffffffffffffffffffffffffffffffffffff1673ffffffffffffffffffffffffffffffffffffffff1681526020019081526020016000206040518060800160405290816000820180546103949061324f565b80601f01602080910402602001604051908101604052809291908181526020018280546103c09061324f565b801561040d5780601f106103e25761010080835404028352916020019161040d565b820191906000526020600020905b8154815290600101906020018083116103f057829003601f168201915b505050505081526020016001820160009054906101000a900473ffffffffffffffffffffffffffffffffffffffff1673ffffffffffffffffffffffffffffffffffffffff1673ffffffffffffffffffffffffffffffffffffffff1681526020016001820160149054906101000a900460ff1615151515815260200160028201548152505090506000600460003373ffffffffffffffffffffffffffffffffffffffff1673ffffffffffffffffffffffffffffffffffffffff16815260200190815260200160002060000180546104e29061324f565b905003610524576040517f08c379a000000000000000000000000000000000000000000000000000000000815260040161051b906132dd565b60405180910390fd5b600460003373ffffffffffffffffffffffffffffffffffffffff1673ffffffffffffffffffffffffffffffffffffffff16815260200190815260200160002060010160149054906101000a900460ff166105b3576040517f08c379a00000000000000000000000000000000000000000000000000000000081526004016105aa90613349565b60405180910390fd5b6000600660003373ffffffffffffffffffffffffffffffffffffffff1673ffffffffffffffffffffffffffffffffffffffff168152602001908152602001600020549050600061069382600260009054906101000a900473ffffffffffffffffffffffffffffffffffffffff1673ffffffffffffffffffffffffffffffffffffffff1663c982923f6040518163ffffffff1660e01b8152600401602060405180830381865afa15801561066a573d6000803e3d6000fd5b505050506040513d601f19601f8201168201806040525081019061068e919061337e565b612669565b905080935050505090565b60008151116106e2576040517f08c379a00000000000000000000000000000000000000000000000000000000081526004016106d9906133f7565b60405180910390fd5b6000600460003373ffffffffffffffffffffffffffffffffffffffff1673ffffffffffffffffffffffffffffffffffffffff16815260200190815260200160002060000180546107319061324f565b905014610773576040517f08c379a000000000000000000000000000000000000000000000000000000000815260040161076a90613463565b60405180910390fd5b6003543410156107b8576040517f08c379a00000000000000000000000000000000000000000000000000000000081526004016107af906134cf565b60405180910390fd5b60405180608001604052808281526020013373ffffffffffffffffffffffffffffffffffffffff16815260200160011515815260200142815250600460003373ffffffffffffffffffffffffffffffffffffffff1673ffffffffffffffffffffffffffffffffffffffff16815260200190815260200160002060008201518160000190816108469190613691565b5060208201518160010160006101000a81548173ffffffffffffffffffffffffffffffffffffffff021916908373ffffffffffffffffffffffffffffffffffffffff16021790555060408201518160010160146101000a81548160ff021916908315150217905550606082015181600201559050503373ffffffffffffffffffffffffffffffffffffffff167f9954bce02f72fbdef0fa668ac6f42e434b5829615dac2fb22448054d2359d4f682604051610901919061379c565b60405180910390a2346001600082825461091b91906137ed565b9250508190555050565b606060006109c46000600260009054906101000a900473ffffffffffffffffffffffffffffffffffffffff1673ffffffffffffffffffffffffffffffffffffffff1663147e91086040518163ffffffff1660e01b8152600401602060405180830381865afa15801561099b573d6000803e3d6000fd5b505050506040513d601f19601f820116820180604052508101906109bf919061337e565b612669565b90508091505090565b600080600460003373ffffffffffffffffffffffffffffffffffffffff1673ffffffffffffffffffffffffffffffffffffffff168152602001908152602001600020604051806080016040529081600082018054610a2a9061324f565b80601f0160208091040260200160405190810160405280929190818152602001828054610a569061324f565b8015610aa35780601f10610a7857610100808354040283529160200191610aa3565b820191906000526020600020905b815481529060010190602001808311610a8657829003601f168201915b505050505081526020016001820160009054906101000a900473ffffffffffffffffffffffffffffffffffffffff1673ffffffffffffffffffffffffffffffffffffffff1673ffffffffffffffffffffffffffffffffffffffff1681526020016001820160149054906101000a900460ff1615151515815260200160028201548152505090506000600460003373ffffffffffffffffffffffffffffffffffffffff1673ffffffffffffffffffffffffffffffffffffffff1681526020019081526020016000206000018054610b789061324f565b905003610bba576040517f08c379a0000000000000000000000000000000000000000000000000000000008152600401610bb1906132dd565b60405180910390fd5b600460003373ffffffffffffffffffffffffffffffffffffffff1673ffffffffffffffffffffffffffffffffffffffff16815260200190815260200160002060010160149054906101000a900460ff16610c49576040517f08c379a0000000000000000000000000000000000000000000000000000000008152600401610c4090613349565b60405180910390fd5b600660003373ffffffffffffffffffffffffffffffffffffffff1673ffffffffffffffffffffffffffffffffffffffff16815260200190815260200160002054600260009054906101000a900473ffffffffffffffffffffffffffffffffffffffff1673ffffffffffffffffffffffffffffffffffffffff1663c982923f6040518163ffffffff1660e01b8152600401602060405180830381865afa158015610cf6573d6000803e3d6000fd5b505050506040513d601f19601f82011682018060405250810190610d1a919061337e565b610d249190613821565b91505090565b60008054906101000a900473ffffffffffffffffffffffffffffffffffffffff1673ffffffffffffffffffffffffffffffffffffffff163373ffffffffffffffffffffffffffffffffffffffff1614610db8576040517f08c379a0000000000000000000000000000000000000000000000000000000008152600401610daf906132dd565b60405180910390fd5b600060015411610dfd576040517f08c379a0000000000000000000000000000000000000000000000000000000008152600401610df4906138a1565b60405180910390fd5b3373ffffffffffffffffffffffffffffffffffffffff166108fc6001549081150290604051600060405180830381858888f19350505050158015610e45573d6000803e3d6000fd5b5060008054906101000a900473ffffffffffffffffffffffffffffffffffffffff1673ffffffffffffffffffffffffffffffffffffffff167fddc398b321237a8d40ac914388309c2f52a08c134e4dc4ce61e32f57cb7d80f1600154604051610eae9190613054565b60405180910390a26000600181905550565b600260009054906101000a900473ffffffffffffffffffffffffffffffffffffffff1681565b60008054906101000a900473ffffffffffffffffffffffffffffffffffffffff1673ffffffffffffffffffffffffffffffffffffffff163373ffffffffffffffffffffffffffffffffffffffff1614610f74576040517f08c379a0000000000000000000000000000000000000000000000000000000008152600401610f6b906132dd565b60405180910390fd5b8060038190555050565b610f86612b00565b6000600460008473ffffffffffffffffffffffffffffffffffffffff1673ffffffffffffffffffffffffffffffffffffffff1681526020019081526020016000206000018054610fd59061324f565b905003611017576040517f08c379a000000000000000000000000000000000000000000000000000000000815260040161100e9061390d565b60405180910390fd5b600460008373ffffffffffffffffffffffffffffffffffffffff1673ffffffffffffffffffffffffffffffffffffffff1681526020019081526020016000206040518060800160405290816000820180546110719061324f565b80601f016020809104026020016040519081016040528092919081815260200182805461109d9061324f565b80156110ea5780601f106110bf576101008083540402835291602001916110ea565b820191906000526020600020905b8154815290600101906020018083116110cd57829003601f168201915b505050505081526020016001820160009054906101000a900473ffffffffffffffffffffffffffffffffffffffff1673ffffffffffffffffffffffffffffffffffffffff1673ffffffffffffffffffffffffffffffffffffffff1681526020016001820160149054906101000a900460ff161515151581526020016002820154815250509050919050565b6000600460003373ffffffffffffffffffffffffffffffffffffffff1673ffffffffffffffffffffffffffffffffffffffff1681526020019081526020016000206040518060800160405290816000820180546111d19061324f565b80601f01602080910402602001604051908101604052809291908181526020018280546111fd9061324f565b801561124a5780601f1061121f5761010080835404028352916020019161124a565b820191906000526020600020905b81548152906001019060200180831161122d57829003601f168201915b505050505081526020016001820160009054906101000a900473ffffffffffffffffffffffffffffffffffffffff1673ffffffffffffffffffffffffffffffffffffffff1673ffffffffffffffffffffffffffffffffffffffff1681526020016001820160149054906101000a900460ff1615151515815260200160028201548152505090506000600460003373ffffffffffffffffffffffffffffffffffffffff1673ffffffffffffffffffffffffffffffffffffffff168152602001908152602001600020600001805461131f9061324f565b905003611361576040517f08c379a0000000000000000000000000000000000000000000000000000000008152600401611358906132dd565b60405180910390fd5b600460003373ffffffffffffffffffffffffffffffffffffffff1673ffffffffffffffffffffffffffffffffffffffff16815260200190815260200160002060010160149054906101000a900460ff166113f0576040517f08c379a00000000000000000000000000000000000000000000000000000000081526004016113e790613349565b60405180910390fd5b66038d7ea4c6800034101561143a576040517f08c379a0000000000000000000000000000000000000000000000000000000008152600401611431906134cf565b60405180910390fd5b81600460003373ffffffffffffffffffffffffffffffffffffffff1673ffffffffffffffffffffffffffffffffffffffff16815260200190815260200160002060000190816114899190613691565b505050565b6000600460003373ffffffffffffffffffffffffffffffffffffffff1673ffffffffffffffffffffffffffffffffffffffff1681526020019081526020016000206040518060800160405290816000820180546114ea9061324f565b80601f01602080910402602001604051908101604052809291908181526020018280546115169061324f565b80156115635780601f1061153857610100808354040283529160200191611563565b820191906000526020600020905b81548152906001019060200180831161154657829003601f168201915b505050505081526020016001820160009054906101000a900473ffffffffffffffffffffffffffffffffffffffff1673ffffffffffffffffffffffffffffffffffffffff1673ffffffffffffffffffffffffffffffffffffffff1681526020016001820160149054906101000a900460ff1615151515815260200160028201548152505090506000600460003373ffffffffffffffffffffffffffffffffffffffff1673ffffffffffffffffffffffffffffffffffffffff16815260200190815260200160002060000180546116389061324f565b90500361167a576040517f08c379a0000000000000000000000000000000000000000000000000000000008152600401611671906132dd565b60405180910390fd5b600460003373ffffffffffffffffffffffffffffffffffffffff1673ffffffffffffffffffffffffffffffffffffffff16815260200190815260200160002060010160149054906101000a900460ff16611709576040517f08c379a000000000000000000000000000000000000000000000000000000000815260040161170090613349565b60405180910390fd5b61012c8251111561174f576040517f08c379a00000000000000000000000000000000000000000000000000000000081526004016117469061399f565b60405180910390fd5b6040518060a00160405280600260009054906101000a900473ffffffffffffffffffffffffffffffffffffffff1673ffffffffffffffffffffffffffffffffffffffff1663c982923f6040518163ffffffff1660e01b8152600401602060405180830381865afa1580156117c7573d6000803e3d6000fd5b505050506040513d601f19601f820116820180604052508101906117eb919061337e565b81526020018381526020013373ffffffffffffffffffffffffffffffffffffffff1681526020016000151581526020014281525060056000600260009054906101000a900473ffffffffffffffffffffffffffffffffffffffff1673ffffffffffffffffffffffffffffffffffffffff1663147e91086040518163ffffffff1660e01b8152600401602060405180830381865afa158015611890573d6000803e3d6000fd5b505050506040513d601f19601f820116820180604052508101906118b4919061337e565b81526020019081526020016000206000820151816000015560208201518160010190816118e19190613691565b5060408201518160020160006101000a81548173ffffffffffffffffffffffffffffffffffffffff021916908373ffffffffffffffffffffffffffffffffffffffff16021790555060608201518160020160146101000a81548160ff021916908315150217905550608082015181600301559050503373ffffffffffffffffffffffffffffffffffffffff16600260009054906101000a900473ffffffffffffffffffffffffffffffffffffffff1673ffffffffffffffffffffffffffffffffffffffff1663147e91086040518163ffffffff1660e01b8152600401602060405180830381865afa1580156119da573d6000803e3d6000fd5b505050506040513d601f19601f820116820180604052508101906119fe919061337e565b7fc4ae556642cbe7e693d6cce227775ac9ab2298e3032f588ccb496b83110d0e8884604051611a2d919061379c565b60405180910390a3600260009054906101000a900473ffffffffffffffffffffffffffffffffffffffff1673ffffffffffffffffffffffffffffffffffffffff16631245a1b46040518163ffffffff1660e01b8152600401600060405180830381600087803b158015611a9f57600080fd5b505af1158015611ab3573d6000803e3d6000fd5b50505050600260009054906101000a900473ffffffffffffffffffffffffffffffffffffffff1673ffffffffffffffffffffffffffffffffffffffff1663c6afbc446040518163ffffffff1660e01b8152600401600060405180830381600087803b158015611b2157600080fd5b505af1158015611b35573d6000803e3d6000fd5b505050505050565b6000600460003373ffffffffffffffffffffffffffffffffffffffff1673ffffffffffffffffffffffffffffffffffffffff168152602001908152602001600020604051806080016040529081600082018054611b999061324f565b80601f0160208091040260200160405190810160405280929190818152602001828054611bc59061324f565b8015611c125780601f10611be757610100808354040283529160200191611c12565b820191906000526020600020905b815481529060010190602001808311611bf557829003601f168201915b505050505081526020016001820160009054906101000a900473ffffffffffffffffffffffffffffffffffffffff1673ffffffffffffffffffffffffffffffffffffffff1673ffffffffffffffffffffffffffffffffffffffff1681526020016001820160149054906101000a900460ff1615151515815260200160028201548152505090506000600460003373ffffffffffffffffffffffffffffffffffffffff1673ffffffffffffffffffffffffffffffffffffffff1681526020019081526020016000206000018054611ce79061324f565b905003611d29576040517f08c379a0000000000000000000000000000000000000000000000000000000008152600401611d20906132dd565b60405180910390fd5b600460003373ffffffffffffffffffffffffffffffffffffffff1673ffffffffffffffffffffffffffffffffffffffff16815260200190815260200160002060010160149054906101000a900460ff16611db8576040517f08c379a0000000000000000000000000000000000000000000000000000000008152600401611daf90613349565b60405180910390fd5b6000600560008481526020019081526020016000206001018054611ddb9061324f565b905003611e1d576040517f08c379a0000000000000000000000000000000000000000000000000000000008152600401611e1490613a0b565b60405180910390fd5b3373ffffffffffffffffffffffffffffffffffffffff166005600084815260200190815260200160002060020160009054906101000a900473ffffffffffffffffffffffffffffffffffffffff1673ffffffffffffffffffffffffffffffffffffffff161480611ed8575060008054906101000a900473ffffffffffffffffffffffffffffffffffffffff1673ffffffffffffffffffffffffffffffffffffffff163373ffffffffffffffffffffffffffffffffffffffff16145b611f17576040517f08c379a0000000000000000000000000000000000000000000000000000000008152600401611f0e906132dd565b60405180910390fd5b6005600083815260200190815260200160002060020160149054906101000a900460ff1615611f7b576040517f08c379a0000000000000000000000000000000000000000000000000000000008152600401611f7290613a77565b60405180910390fd5b60016005600084815260200190815260200160002060020160146101000a81548160ff021916908315150217905550600260009054906101000a900473ffffffffffffffffffffffffffffffffffffffff1673ffffffffffffffffffffffffffffffffffffffff1663329ae4316040518163ffffffff1660e01b8152600401600060405180830381600087803b15801561201457600080fd5b505af1158015612028573d6000803e3d6000fd5b50505050817f6279be045e4d4d5a0eba7b1f0e578322b6dd7c01e92f0991700a02180904654b60405160405180910390a25050565b6000600260009054906101000a900473ffffffffffffffffffffffffffffffffffffffff1673ffffffffffffffffffffffffffffffffffffffff1663c982923f6040518163ffffffff1660e01b8152600401602060405180830381865afa1580156120cc573d6000803e3d6000fd5b505050506040513d601f19601f820116820180604052508101906120f0919061337e565b905090565b6000600460003373ffffffffffffffffffffffffffffffffffffffff1673ffffffffffffffffffffffffffffffffffffffff1681526020019081526020016000206040518060800160405290816000820180546121519061324f565b80601f016020809104026020016040519081016040528092919081815260200182805461217d9061324f565b80156121ca5780601f1061219f576101008083540402835291602001916121ca565b820191906000526020600020905b8154815290600101906020018083116121ad57829003601f168201915b505050505081526020016001820160009054906101000a900473ffffffffffffffffffffffffffffffffffffffff1673ffffffffffffffffffffffffffffffffffffffff1673ffffffffffffffffffffffffffffffffffffffff1681526020016001820160149054906101000a900460ff1615151515815260200160028201548152505090506000600460003373ffffffffffffffffffffffffffffffffffffffff1673ffffffffffffffffffffffffffffffffffffffff168152602001908152602001600020600001805461229f9061324f565b9050036122e1576040517f08c379a00000000000000000000000000000000000000000000000000000000081526004016122d8906132dd565b60405180910390fd5b600460003373ffffffffffffffffffffffffffffffffffffffff1673ffffffffffffffffffffffffffffffffffffffff16815260200190815260200160002060010160149054906101000a900460ff16612370576040517f08c379a000000000000000000000000000000000000000000000000000000000815260040161236790613349565b60405180910390fd5b6000600660003373ffffffffffffffffffffffffffffffffffffffff1673ffffffffffffffffffffffffffffffffffffffff168152602001908152602001600020549050600061245082600260009054906101000a900473ffffffffffffffffffffffffffffffffffffffff1673ffffffffffffffffffffffffffffffffffffffff1663c982923f6040518163ffffffff1660e01b8152600401602060405180830381865afa158015612427573d6000803e3d6000fd5b505050506040513d601f19601f8201168201806040525081019061244b919061337e565b612669565b905061245b33612a29565b7f8cbf4db0f341d403a3fda139f00bf50cf4b7c938bdbadbf8690edaaa34a914868160405161248a9190612e91565b60405180910390a1505050565b60035481565b60008054906101000a900473ffffffffffffffffffffffffffffffffffffffff1673ffffffffffffffffffffffffffffffffffffffff163373ffffffffffffffffffffffffffffffffffffffff161461252b576040517f08c379a0000000000000000000000000000000000000000000000000000000008152600401612522906132dd565b60405180910390fd5b6000600460008373ffffffffffffffffffffffffffffffffffffffff1673ffffffffffffffffffffffffffffffffffffffff168152602001908152602001600020600001805461257a9061324f565b9050036125bc576040517f08c379a00000000000000000000000000000000000000000000000000000000081526004016125b390613ae3565b60405180910390fd5b600460008273ffffffffffffffffffffffffffffffffffffffff1673ffffffffffffffffffffffffffffffffffffffff16815260200190815260200160002060010160149054906101000a900460ff1615600460008373ffffffffffffffffffffffffffffffffffffffff1673ffffffffffffffffffffffffffffffffffffffff16815260200190815260200160002060010160146101000a81548160ff02191690831515021790555050565b6060600083836126799190613821565b67ffffffffffffffff81111561269257612691612ed1565b5b6040519080825280602002602001820160405280156126cb57816020015b6126b8612b40565b8152602001906001900390816126b05790505b50905060008490505b83811015612a1e576005600082815260200190815260200160002060020160149054906101000a900460ff16612a0b57600460006005600084815260200190815260200160002060020160009054906101000a900473ffffffffffffffffffffffffffffffffffffffff1673ffffffffffffffffffffffffffffffffffffffff1673ffffffffffffffffffffffffffffffffffffffff1681526020019081526020016000206040518060800160405290816000820180546127949061324f565b80601f01602080910402602001604051908101604052809291908181526020018280546127c09061324f565b801561280d5780601f106127e25761010080835404028352916020019161280d565b820191906000526020600020905b8154815290600101906020018083116127f057829003601f168201915b505050505081526020016001820160009054906101000a900473ffffffffffffffffffffffffffffffffffffffff1673ffffffffffffffffffffffffffffffffffffffff1673ffffffffffffffffffffffffffffffffffffffff1681526020016001820160149054906101000a900460ff161515151581526020016002820154815250508282815181106128a4576128a3613b03565b5b602002602001015160200181905250600560008281526020019081526020016000206040518060a0016040529081600082015481526020016001820180546128eb9061324f565b80601f01602080910402602001604051908101604052809291908181526020018280546129179061324f565b80156129645780601f1061293957610100808354040283529160200191612964565b820191906000526020600020905b81548152906001019060200180831161294757829003601f168201915b505050505081526020016002820160009054906101000a900473ffffffffffffffffffffffffffffffffffffffff1673ffffffffffffffffffffffffffffffffffffffff1673ffffffffffffffffffffffffffffffffffffffff1681526020016002820160149054906101000a900460ff161515151581526020016003820154815250508282815181106129fb576129fa613b03565b5b6020026020010151600001819052505b8080612a1690613b32565b9150506126d4565b508091505092915050565b600260009054906101000a900473ffffffffffffffffffffffffffffffffffffffff1673ffffffffffffffffffffffffffffffffffffffff1663c982923f6040518163ffffffff1660e01b8152600401602060405180830381865afa158015612a96573d6000803e3d6000fd5b505050506040513d601f19601f82011682018060405250810190612aba919061337e565b600660008373ffffffffffffffffffffffffffffffffffffffff1673ffffffffffffffffffffffffffffffffffffffff1681526020019081526020016000208190555050565b604051806080016040528060608152602001600073ffffffffffffffffffffffffffffffffffffffff168152602001600015158152602001600081525090565b6040518060400160405280612b53612b66565b8152602001612b60612b00565b81525090565b6040518060a001604052806000815260200160608152602001600073ffffffffffffffffffffffffffffffffffffffff168152602001600015158152602001600081525090565b600081519050919050565b600082825260208201905092915050565b6000819050602082019050919050565b6000819050919050565b612bec81612bd9565b82525050565b600081519050919050565b600082825260208201905092915050565b60005b83811015612c2c578082015181840152602081019050612c11565b60008484015250505050565b6000601f19601f8301169050919050565b6000612c5482612bf2565b612c5e8185612bfd565b9350612c6e818560208601612c0e565b612c7781612c38565b840191505092915050565b600073ffffffffffffffffffffffffffffffffffffffff82169050919050565b6000612cad82612c82565b9050919050565b612cbd81612ca2565b82525050565b60008115159050919050565b612cd881612cc3565b82525050565b600060a083016000830151612cf66000860182612be3565b5060208301518482036020860152612d0e8282612c49565b9150506040830151612d236040860182612cb4565b506060830151612d366060860182612ccf565b506080830151612d496080860182612be3565b508091505092915050565b60006080830160008301518482036000860152612d718282612c49565b9150506020830151612d866020860182612cb4565b506040830151612d996040860182612ccf565b506060830151612dac6060860182612be3565b508091505092915050565b60006040830160008301518482036000860152612dd48282612cde565b91505060208301518482036020860152612dee8282612d54565b9150508091505092915050565b6000612e078383612db7565b905092915050565b6000602082019050919050565b6000612e2782612bad565b612e318185612bb8565b935083602082028501612e4385612bc9565b8060005b85811015612e7f5784840389528151612e608582612dfb565b9450612e6b83612e0f565b925060208a01995050600181019050612e47565b50829750879550505050505092915050565b60006020820190508181036000830152612eab8184612e1c565b905092915050565b6000604051905090565b600080fd5b600080fd5b600080fd5b600080fd5b7f4e487b7100000000000000000000000000000000000000000000000000000000600052604160045260246000fd5b612f0982612c38565b810181811067ffffffffffffffff82111715612f2857612f27612ed1565b5b80604052505050565b6000612f3b612eb3565b9050612f478282612f00565b919050565b600067ffffffffffffffff821115612f6757612f66612ed1565b5b612f7082612c38565b9050602081019050919050565b82818337600083830152505050565b6000612f9f612f9a84612f4c565b612f31565b905082815260208101848484011115612fbb57612fba612ecc565b5b612fc6848285612f7d565b509392505050565b600082601f830112612fe357612fe2612ec7565b5b8135612ff3848260208601612f8c565b91505092915050565b60006020828403121561301257613011612ebd565b5b600082013567ffffffffffffffff8111156130305761302f612ec2565b5b61303c84828501612fce565b91505092915050565b61304e81612bd9565b82525050565b60006020820190506130696000830184613045565b92915050565b6000819050919050565b600061309461308f61308a84612c82565b61306f565b612c82565b9050919050565b60006130a682613079565b9050919050565b60006130b88261309b565b9050919050565b6130c8816130ad565b82525050565b60006020820190506130e360008301846130bf565b92915050565b6130f281612bd9565b81146130fd57600080fd5b50565b60008135905061310f816130e9565b92915050565b60006020828403121561312b5761312a612ebd565b5b600061313984828501613100565b91505092915050565b61314b81612ca2565b811461315657600080fd5b50565b60008135905061316881613142565b92915050565b60006020828403121561318457613183612ebd565b5b600061319284828501613159565b91505092915050565b600060808301600083015184820360008601526131b88282612c49565b91505060208301516131cd6020860182612cb4565b5060408301516131e06040860182612ccf565b5060608301516131f36060860182612be3565b508091505092915050565b60006020820190508181036000830152613218818461319b565b905092915050565b7f4e487b7100000000000000000000000000000000000000000000000000000000600052602260045260246000fd5b6000600282049050600182168061326757607f821691505b60208210810361327a57613279613220565b5b50919050565b600082825260208201905092915050565b7f53656e646572206973206e6f7420617574686f72697a65640000000000000000600082015250565b60006132c7601883613280565b91506132d282613291565b602082019050919050565b600060208201905081810360008301526132f6816132ba565b9050919050565b7f5573657220696e61637469766500000000000000000000000000000000000000600082015250565b6000613333600d83613280565b915061333e826132fd565b602082019050919050565b6000602082019050818103600083015261336281613326565b9050919050565b600081519050613378816130e9565b92915050565b60006020828403121561339457613393612ebd565b5b60006133a284828501613369565b91505092915050565b7f4e69636b6e616d65206d757374206e6f7420626520656d707479000000000000600082015250565b60006133e1601a83613280565b91506133ec826133ab565b602082019050919050565b60006020820190508181036000830152613410816133d4565b9050919050565b7f5573657220616c72656164792065786973747300000000000000000000000000600082015250565b600061344d601383613280565b915061345882613417565b602082019050919050565b6000602082019050818103600083015261347c81613440565b9050919050565b7f496e73756666696369656e742076616c75650000000000000000000000000000600082015250565b60006134b9601283613280565b91506134c482613483565b602082019050919050565b600060208201905081810360008301526134e8816134ac565b9050919050565b60008190508160005260206000209050919050565b60006020601f8301049050919050565b600082821b905092915050565b6000600883026135517fffffffffffffffffffffffffffffffffffffffffffffffffffffffffffffffff82613514565b61355b8683613514565b95508019841693508086168417925050509392505050565b600061358e61358961358484612bd9565b61306f565b612bd9565b9050919050565b6000819050919050565b6135a883613573565b6135bc6135b482613595565b848454613521565b825550505050565b600090565b6135d16135c4565b6135dc81848461359f565b505050565b5b81811015613600576135f56000826135c9565b6001810190506135e2565b5050565b601f82111561364557613616816134ef565b61361f84613504565b8101602085101561362e578190505b61364261363a85613504565b8301826135e1565b50505b505050565b600082821c905092915050565b60006136686000198460080261364a565b1980831691505092915050565b60006136818383613657565b9150826002028217905092915050565b61369a82612bf2565b67ffffffffffffffff8111156136b3576136b2612ed1565b5b6136bd825461324f565b6136c8828285613604565b600060209050601f8311600181146136fb57600084156136e9578287015190505b6136f38582613675565b86555061375b565b601f198416613709866134ef565b60005b828110156137315784890151825560018201915060208501945060208101905061370c565b8683101561374e578489015161374a601f891682613657565b8355505b6001600288020188555050505b505050505050565b600061376e82612bf2565b6137788185613280565b9350613788818560208601612c0e565b61379181612c38565b840191505092915050565b600060208201905081810360008301526137b68184613763565b905092915050565b7f4e487b7100000000000000000000000000000000000000000000000000000000600052601160045260246000fd5b60006137f882612bd9565b915061380383612bd9565b925082820190508082111561381b5761381a6137be565b5b92915050565b600061382c82612bd9565b915061383783612bd9565b925082820390508181111561384f5761384e6137be565b5b92915050565b7f4e6f2062616c616e636520617661696c61626c6520746f207769746864726177600082015250565b600061388b602083613280565b915061389682613855565b602082019050919050565b600060208201905081810360008301526138ba8161387e565b9050919050565b7f55736572204e6f74204578697374000000000000000000000000000000000000600082015250565b60006138f7600e83613280565b9150613902826138c1565b602082019050919050565b60006020820190508181036000830152613926816138ea565b9050919050565b7f546865206d65737361676520657863656564732033303020636861726163746560008201527f7273000000000000000000000000000000000000000000000000000000000000602082015250565b6000613989602283613280565b91506139948261392d565b604082019050919050565b600060208201905081810360008301526139b88161397c565b9050919050565b7f4d657373616765206e6f7420666f756e642e0000000000000000000000000000600082015250565b60006139f5601283613280565b9150613a00826139bf565b602082019050919050565b60006020820190508181036000830152613a24816139e8565b9050919050565b7f4d6573736167652069732064656c657465640000000000000000000000000000600082015250565b6000613a61601283613280565b9150613a6c82613a2b565b602082019050919050565b60006020820190508181036000830152613a9081613a54565b9050919050565b7f55736572206e6f7420666f756e642e0000000000000000000000000000000000600082015250565b6000613acd600f83613280565b9150613ad882613a97565b602082019050919050565b60006020820190508181036000830152613afc81613ac0565b9050919050565b7f4e487b7100000000000000000000000000000000000000000000000000000000600052603260045260246000fd5b6000613b3d82612bd9565b91507fffffffffffffffffffffffffffffffffffffffffffffffffffffffffffffffff8203613b6f57613b6e6137be565b5b60018201905091905056fea2646970667358221220f609bf9039d4e41ca6d9163fd802cbed2fbaef63b273f70d864c2d2abb9e134e64736f6c63430008110033",
  "linkReferences": {},
  "deployedLinkReferences": {}
}